:020000040800F2
:10000000600900209D4500082525000827250008D7
:100010002B2500082F2500083325000800000000CC
:10002000000000000000000000000000372500086C
:1000300039250008000000003B2500083D25000888
:10004000B7450008B7450008B7450008B7450008A0
:10005000B7450008B7450008B7450008B745000890
:10006000B7450008B7450008B7450008B745000880
:10007000B7450008B7450008B7450008B745000870
:10008000B7450008B7450008B7450008B745000860
:10009000B7450008B7450008B7450008B745000850
:1000A000B7450008B7450008B7450008B745000840
:1000B000B7450008B7450008B7450008B745000830
:1000C000B7450008B7450008B7450008B745000820
:1000D000B7450008AB280008B7450008B745000839
:1000E000B7450008B7450008B7450008B745000800
:1000F000B7450008B7450008B7450008B7450008F0
:10010000B7450008B745000861020008B745000878
:10011000B7450008B7450008B7450008B7450008CF
:10012000B7450008B7450008B7450008B7450008BF
:1001300000F002F800F03FF80AA090E8000C8244BA
:100140008344AAF10107DA4501D100F034F8AFF297
:10015000090EBAE80F0013F0010F18BFFB1A43F0A5
:10016000010318471464000034640000103A24BFEF
:1001700078C878C1FAD8520724BF30C830C144BF0C
:1001800004680C607047000000230024002500264E
:10019000103A28BF78C1FBD8520728BF30C148BFEA
:1001A0000B607047642904F04F82002070471FB530
:1001B0001FBD10B510BD04F0A7FB1146FFF7F7FFF8
:1001C00002F0D4F804F0C5FB03B4FFF7F2FF03BC60
:1001D00002F010FB10B56B4800F09EF96A4800F081
:1001E00048F96A480078401C684908700846007859
:1001F00005280BD10020087001206549086065487A
:1002000002F026F800206449C1F8A80110BD7FB5AE
:1002100005460C460121082003F04DF8ADF80850C2
:10022000ADF804400020ADF80A00ADF8060001A9C1
:100230005A4803F06BF901221146584803F0DDFCDF
:1002400032208DF8000001208DF8010000208DF88B
:10025000020001208DF80300684602F070FB7FBDAC
:100260002DE9F04F87B001214C4803F074FF0028BE
:1002700060D00121494803F07FFF01204449091D56
:10028000086047480078401C45490870FFF7A2FF06
:1002900000F025FE3F49B1F9040005F0B3FE044625
:1002A0003C49B1F9020005F0ADFE05463949B1F906
:1002B000000005F0A7FE06463A49B1F9040005F032
:1002C000A1FE07463749B1F9020005F09BFE8046C2
:1002D0003449B1F9000005F095FE81463249B1F983
:1002E000040005F08FFE82462F49B1F9020005F0A7
:1002F00089FE83462C49B1F9000005F083FE4B4688
:1003000052465946CDE90087CDE90265049406902E
:1003100000F0C1FE00F085FD21480078282805D1B5
:1003200001202249087000201D490870002018494A
:10033000091D086007B0BDE8F08F10B54FF4A0604C
:1003400002F0F8FA10BD10B5FFF7F7FF4FF41640B2
:1003500002F05FFA02F0E4F900F02AF800F003F985
:1003600000F042F800F09CF80A2002F016FA01F0C2
:1003700063FF0A2002F011FA41F61F411D20FFF72A
:1003800046FF10BD2E0000201600002008000020AF
:10039000A8812142B800002000802142000C0040CA
:1003A0000600002010000020280000200700002088
:1003B00008B50121102002F071FF4FF40050ADF894
:1003C000000010208DF8030003208DF8020069461C
:1003D000044802F0A7FC4FF40051024802F04FFD20
:1003E00008BD0000001001401CB52BA103C9CDE9D8
:1003F00000019DF800203121A62000F0DEF9012047
:1004000002F0CBF99DF801202C21A62000F0D5F9AF
:10041000012002F0C2F99DF802202D21A62000F053
:10042000CCF9012002F0B9F99DF803202E21A62075
:1004300000F0C3F9012002F0B0F99DF804201E215C
:10044000A62000F0BAF9012002F0A7F99DF80520D6
:100450001F21A62000F0B1F9012002F09EF99DF8BD
:1004600006202021A62000F0A8F9012002F095F92D
:100470001CBD1CB5044606236A463221A62000F0A6
:1004800006FA40B1BDF800002080BDF8020060808F
:10049000BDF80400A0801CBD090C0880FCFF090009
:1004A0001CB527A103C9CDE900019DF8002020213A
:1004B000D22000F082F9012002F06FF99DF80120AE
:1004C0002121D22000F079F9012002F066F99DF88F
:1004D00002202221D22000F070F9012002F05DF903
:1004E0009DF803202321D22000F067F9012002F0BB
:1004F00054F99DF804202421D22000F05EF9012057
:1005000002F04BF99DF805202521D22000F055F985
:10051000012002F042F91CBD1CB5044606236A46C0
:10052000A821D22000F0B3F940B1BDF8000020802E
:10053000BDF802006080BDF80400A0801CBD000072
:100540008F00081000000000002107E04FF4FA516E
:1005500000BF0A00A1F1010399B2FAD10200A0F193
:100560000100F3D1704738B50121092002F096FE51
:10057000E548446824F0E06444F0007444600121DC
:10058000082002F08BFEC020ADF8000003208DF89B
:10059000020014208DF803006946DC4802F0C2FB1B
:1005A000C021DA4802F06BFC4FF44060ADF8000067
:1005B00010208DF803006946D44802F0B3FB4FF4D5
:1005C0004061D24802F05BFC38BD022001E0411ED0
:1005D000C8B20028FBD1704700B58020CB4910314C
:1005E000086040200860FFF7F0FFC8480830006846
:1005F00000F0800008B9002000BD8020C3491431FC
:100600000860FFF7E2FFC1480830006800F0800092
:1006100008B10020F0E78020BC4914310860FFF7E2
:10062000D4FF0120E8E700B54020B8491431086044
:10063000FFF7CBFF8020B54914310860FFF7C5FFF5
:100640004020B24910310860FFF7BFFF8020AF495A
:1006500010310860FFF7B9FF00BD00B54020AB497D
:1006600014310860FFF7B1FF8020A84914310860F9
:10067000FFF7ABFF4020A54910310860FFF7A5FF49
:100680004020A24914310860FFF79FFF00BD00B56C
:1006900040209E4914310860FFF797FF80209B4956
:1006A00010310860FFF791FF402098491031086031
:1006B000FFF78BFF4020954914310860FFF785FF55
:1006C00000BD00B54020914914310860FFF77DFF5F
:1006D00080208E4910310860FFF777FF40208B495A
:1006E00010310860FFF771FF88480830006800F09B
:1006F000800038B14020854914310860FFF765FF5C
:10070000002000BD4020814914310860FFF75DFFE3
:100710000120F6E700B5024608231BE040207B4994
:1007200014310860FFF751FF02F0800020B18020F3
:1007300076491031086003E0802074491431086064
:100740005006020EFFF741FF40207049103108604B
:10075000FFF73BFF1800A3F10101CBB2DED140202F
:100760006A491431086000BD00B5082300228020CA
:1007700066491031086015E05006020E40206349BA
:1007800014310860FFF721FF4020604910310860F4
:10079000FFF71BFF5D480830006800F0800008B1DB
:1007A00042F001021800A3F10101CBB2E4D14020D4
:1007B000564914310860104600BD70B506460C4617
:1007C0001546FFF709FF08B9002070BD3046FFF756
:1007D000A1FFFFF776FF18B9FFF725FF0020F4E728
:1007E0002046FFF797FFFFF76CFF2846FFF792FFC1
:1007F000FFF767FFFFF717FF0120E6E770B5064632
:100800000C461546FFF7E8FE08B9002070BD3046DB
:10081000FFF780FFFFF755FF18B9FFF704FF00202F
:10082000F4E72046FFF776FFFFF74BFF2846FFF778
:1008300071FFFFF746FFFFF7F6FE0120E6E770B510
:1008400004460D46FFF7C8FE08B9002070BD2046DB
:10085000FFF760FFFFF735FF18B9FFF7E4FE002050
:10086000F4E72846FFF756FFFFF72BFFFFF7B4FE2C
:10087000611CC8B2FFF74EFFFFF723FFFFF774FFBD
:100880000646FFF704FFFFF7CEFE3046DEE72DE910
:10089000F0410746884614461D46012D02DA002025
:1008A000BDE8F081FFF798FE08B90020F8E7384668
:1008B000FFF730FFFFF705FF18B9FFF7B4FE002080
:1008C000EEE74046FFF726FFFFF7FBFEFFF784FE4B
:1008D000791CC8B2FFF71EFFFFF7F3FE012607E001
:1008E000FFF742FF04F8010BFFF7B7FE701CC6B21A
:1008F000AE42F5DBFFF738FF04F8010BFFF7C7FE48
:10090000FFF791FE0120CBE700000140000C014001
:100910002DE9F041002700240025002600BF10E04B
:10092000FE48FFF7F9FDFD48B0F900000444FB481C
:10093000B0F902000544F948B0F904000644781CF7
:10094000C7B2282FECDB282094FBF0F000B2F4496A
:100950000880282095FBF0F000B24880282096FB04
:10096000F0F000B28880BDE8F0812DE9F047044640
:100970004FF07C51204605F091FB814625462E46DE
:10098000E848A0EB660635462946484605F086FB52
:100990008246294605F082FB80464FF07F5105F0E4
:1009A0007AFC0746294605F079FB05462846BDE84E
:1009B000F0872DE9F0470446204605F023FB8246E8
:1009C00005F054F90746D84AD84B04F03FFE0546D7
:1009D00004F074FB81464846BDE8F08770B50446D4
:1009E000204605F00FFB0646D14905F057FB0546AA
:1009F000284670BD2DE9F0470446204605F002FB6D
:100A0000824605F033F907464FF03332C94B04F004
:100A10001DFE054604F052FB81464846BDE8F087BE
:100A20002DE9FE4F8246894614469B4609FB09F193
:100A300004FB041005F0E6FA0546FFF796FF029066
:100A4000504605F0DFFA0090029905F027FB01906F
:100A500005F00CF90746B84AB84B04F0F7FD054617
:100A600004F02CFB0C9908600AFB0AF104FB04104B
:100A700005F0C8FA0546FFF778FF0290484605F0F2
:100A8000C1FA0090029905F009FB019005F0EEF81B
:100A90000546A94AA94B04F0D9FD074604F00EFB10
:100AA000CBF80000BDE8FE8F2DE9F04F87B005467A
:100AB0000C46A3480168284605F0F8FB8246A14889
:100AC0004168A14805F0F2FB83469E48816858467C
:100AD00005F0ECFB03909B48C06880F00040049058
:100AE0009848C06880F00040059098480690984962
:100AF000504605F0D3FA834696480168584605F0FB
:100B0000E1F8944908609249039805F0C7FA8346D2
:100B10008C480168584605F0D5F88A4908608C4928
:100B2000049805F0BBFA834686484168584605F0AC
:100B3000C9F8844948608649059805F0AFFA8346AC
:100B400080488168584605F0BDF87E498860804934
:100B5000069805F0A3FA83467A48C168584605F01E
:100B6000B1F87849C8607B480168204605F09EFBD3
:100B7000029074480168784805F0A4F80190714922
:100B80000868019905F00CF980466E49886801995A
:100B900005F006F981466B480668476831464046CD
:100BA00005F07CFA834667480168584605F073FBF8
:100BB000644908603946404605F070FA834661484A
:100BC0004168584605F067FB5E4948603146484633
:100BD00005F064FA83465B488168584605F05BFB84
:100BE000584988603946484605F058FA83465548C2
:100BF000C168584605F04FFB5249C860404602990B
:100C000005F04CFA834653480168584605F05AF8F7
:100C1000504908604846029905F040FA8346484822
:100C20000168584605F04EF8454908604948006893
:100C300007B0BDE8F08F2DE9FC5F80460C461546F5
:100C40001E460E9F4548464B00903046DDE90C128B
:100C5000FFF7E6FE3149B1F9000005F0D3F983460C
:100C60003E480168584605F016FB82463D4905F0AE
:100C700015FA81463B4905F011FA3B4908603B49AA
:100C80003948006805F00AFA814639480168484643
:100C900005F018F8364908602046FFF78AFE1F491C
:100CA0000190B1F9000005F0ADF900902B48016802
:100CB000009805F0F0FA83462E4905F0EFF98246D8
:100CC0002B480168504604F0FDFF8146019904F06D
:100CD000F9FF2949086025492748006805F0DEF931
:100CE000814626480168484604F0ECFF2349086025
:100CF0000A49B1F9020005F085F9834618480168F0
:100D0000584605F0C8FA8246164905F0C7F98146EB
:100D1000144905F0C3F91A49086033E02E00002099
:100D200034000020DF59375FEC51B81E85EB913F4E
:100D30007321A03A33330D40CB67791EDCA54C40BC
:100D40007C0000208000002017B7D13852499D391F
:100D5000A69BC43A78000020D7A3303FAC00002007
:100D6000A80000206666E63E90000020A69B443B5B
:100D7000940000206666663F98000020F400002082
:100D80009C000020FD49FE48006805F087F9814677
:100D9000FC480168484604F095FFFA49086040465F
:100DA000FFF707FEF8490190B1F9020005F02AF9B2
:100DB0000090F6480168009805F06DFA8346F44902
:100DC00005F06CF98246EF480168504604F07AFF5E
:100DD0008146019904F076FFEE490860E749ED4845
:100DE000006805F05BF98146EB484168484604F02D
:100DF00069FFE949486017F1050F10DB052F0EDC8C
:100E00002846FFF7D6FD8246DC4905F047F98146C2
:100E1000E1488168484604F055FFDF498860BDE835
:100E2000FC9F2DE9F84FDD48DD4B0090B3F904201D
:100E3000B3F90210B3F90000DA4BFFF7F1FDD24924
:100E4000B1F9000004F0AFFB8246D74AD74B04F05B
:100E5000FDFB06460F46D648006804F007FF8046B3
:100E600032463B4604F05CF9044604F027F9D049C9
:100E70000860C549B1F9020004F095FB8246CA4AF0
:100E8000CA4B04F0E3FB06460F46CA48006804F06C
:100E9000EDFE804632463B4604F042F9044604F03B
:100EA0000DF9C4490860B849B1F9040004F07BFBAE
:100EB0008046BD4ABD4B04F0C9FB04460D46BE4802
:100EC000006804F0D3FE064622462B4604F028F9BB
:100ED000824604F0F3F8B8490860BDE8F88F2DE9C0
:100EE000F04F87B000250026A946AD480088B349D9
:100EF000B34A127821F81200A9484088B149B04A93
:100F0000127821F81200A6488188AF48AC4A1278BE
:100F100020F8121000240DE0A84830F91400054410
:100F2000A84830F914000644A74830F91400814459
:100F3000601CC4B2282CEFDB282095FBF0F00F30AA
:100F400000B2A2490880282096FBF0F0401D00B2B4
:100F50004880282099FBF0F000B2888098480078FB
:100F6000401C9749087008460078282801D10020C5
:100F700008708549B1F9000004F015FB0746944A52
:100F8000944B04F063FB944A944BCDE9000104F0C8
:100F90005DFBCDE904019249B1F9000004F003FBC7
:100FA000CDE90201DDE9042304F0BAF8824604F039
:100FB000CBFA00B28A4908807349B1F9020004F003
:100FC000F2FA834A834BCDE9000104F03FFB074668
:100FD000814A824B04F03AFBCDE904018049B1F922
:100FE000020004F0E0FACDE90201DDE9042304F097
:100FF00097F8824604F0A8FA00B27949488062491D
:10100000B1F9040004F0CFFA8246714A714B04F042
:101010001DFB714A714BCDE9000104F017FBCDE9CE
:1010200002016F49B1F9040004F0BDFA0746DDE999
:10103000022304F075F8CDE9040104F085FA00B24A
:1010400067498880B1F9000004F0DCFF0746654974
:1010500005F0F0F802D20020614908806049B1F93A
:10106000020004F0CFFF07465E4905F0E3F802D224
:1010700000205B4948805A49B1F9040004F0C2FFDE
:101080000746584905F0D6F802D200205449888016
:1010900007B0BDE8F08F0FB5A5B0534801680068F0
:1010A00004F0FCFF1B90514801684F48006804F0B1
:1010B000F5FF1A904E4801684B48006804F0EEFFB7
:1010C00019904A480168006804F0E8FF1890494800
:1010D00001684648006804F0E1FF17904448016841
:1010E000006804F0DBFF1690424801684048006841
:1010F00004F0D4FF15903F480168006804F0CEFF6B
:1011000014902A99289804F0C9FF12902B9904F0A2
:10111000C5FF0021139004F005FF01D129B000BDE7
:101120002B99084604F0BAFF0E902A99084604F05D
:10113000B5FF0C902899084604F0B0FF0B900C996D
:1011400004F0C0FD0D900E9904F0BCFD0F9004F06A
:101150008DFDCDE9100103F08BFFCDE9120103F005
:10116000ADFF24902499289804F01AFE2890249921
:101170002A9804F015FE2A9024993DE0A69B443B52
:101180009C000020A00000202E000020A8000020CD
:101190006666663FA4000020F4000020480000209E
:1011A000160000204C000020BC79AA436E860B3F3D
:1011B00050000020540000205800002000010020B2
:1011C000B000002050010020A001002010000020ED
:1011D000EC51B81E85EB913FFA7E6ABC7493683F70
:1011E00028000020DB0FC9405C00002060000020C8
:1011F00064000020680000202B9804F0D1FD2B90A3
:101200001999179805F052F84FF08041139004F0A7
:1012100045FF239015991A9804F054FD4FF0804132
:10122000139004F03BFF229018991B9805F03EF8AC
:101230001290169905F03AF81390149904F042FDB3
:10124000219022992B9804F029FF139021992A9834
:1012500004F024FF1290139905F028F820902199AA
:10126000289804F01BFF139023992B9804F016FF85
:101270001290139905F01AF81F9023992A9804F0F8
:101280000DFF13902299289804F008FF12901399EB
:1012900005F00CF81E90FE49209804F0FFFE139014
:1012A000FC480168139804F00DFDFA490860F849FC
:1012B0001F9804F0F3FE1390F7480168139804F0A8
:1012C00001FDF5490860F2491E9804F0E7FE13900D
:1012D000F2480168139804F0F5FCF0490860F04802
:1012E000209904F0DBFE1290259904F0EBFC13909A
:1012F000E8480168139804F0E5FC2590E8481F9938
:1013000004F0CCFE1290269904F0DCFC1390E24825
:101310000168139804F0D6FC2690E1481E9904F069
:10132000BDFE1290279904F0CDFC1390DB480168B4
:10133000139804F0C7FC2790DA482799006804F056
:10134000ADFE1190D8482699006804F0A7FE0F90D2
:10135000D648006880F000400D90259904F09EFE6C
:101360000E900F9904F0A2FF1090119904F09EFFC7
:10137000CF49129004F092FE1390CE480168139862
:1013800004F0A0FCCB490860C6482699006804F028
:1013900085FE1190C4482799006804F07FFE0F90E5
:1013A000C4480168259804F079FE0E900F9904F066
:1013B00089FC1090119904F079FFBD49129004F056
:1013C0006DFE1390B9480168139804F07BFCB7498F
:1013D0000860B4480168259804F060FE1190B34895
:1013E0002799006804F05AFE0F90B24826990068C9
:1013F00004F054FE0E900F9904F058FF10901199CC
:1014000004F060FCAA49129004F048FE1390A6482C
:101410000168139804F056FCA34908600846016867
:10142000259804F03BFE1190A0482699006804F02E
:1014300035FE0F909F482799006804F02FFE0E900C
:101440000F9904F03FFC1090119904F02FFF984978
:10145000129004F023FE139092480168139804F050
:1014600031FC9049086008460168006804F016FEE7
:101470000E908D480168006804F010FE0C908B48B7
:101480000168006804F00AFE0A908A480168006852
:1014900004F004FE09900A9904F014FC0B900C99D6
:1014A00004F010FC0D900E9904F00CFC0F9004F069
:1014B000DDFBCDE9100103F0DBFDCDE9120103F006
:1014C000FDFD24907B482499006804F069FC79496B
:1014D000086076482499006804F062FC734908604B
:1014E00071482499006804F05BFC6F4908606D48FE
:1014F0002499006804F054FC6A4908602E99084653
:1015000004F0CCFD0E902D99084604F0C7FD0C9018
:101510002C99084604F0C2FD0B900C9904F0D2FB04
:101520000D900E9904F0CEFB0F9004F09FFBCDE9D7
:10153000100103F09DFDCDE9120103F0BFFD2490E1
:1015400024992C9804F02CFC2C9024992D9804F0CC
:1015500027FC2D9024992E9804F022FC2E905548BB
:1015600001684FF0804004F099FD0A904E480168F0
:101570000A9804F093FD0C904C4801684FF04040ED
:1015800004F08CFD0A90474801680A9804F086FD33
:101590000B900C9904F096FB0D9004F067FBCDE9DD
:1015A0000E0103F055FA4FF06632434BCDE91001BE
:1015B00004F04CF8CDE9120103F080FD3F490860CA
:1015C000394801684FF0804004F068FD07903648C4
:1015D0000168079804F062FD0990344801684FF0F3
:1015E000404004F05BFD079030480168079804F024
:1015F00055FD0890099904F059FE4FF07E510A906C
:1016000004F060FB0B9004F031FBCDE90E0129489A
:1016100001684FF0804004F041FD089023480168C4
:10162000089804F03BFD0A901F4801684FF0804085
:1016300004F034FD08901B480168089804F02EFD62
:1016400009900A9904F03EFB0B9004F00FFBCDE9E2
:101650000C01DDE90E2303F04BFC4FF06632164B14
:10166000CDE9100103F0F2FFCDE9120103F026FDF0
:10167000124948601248007800287DD12E9804F065
:10168000F5FACDE906011A99159804F01BFB19E04B
:101690008FC2753C6C000020700000207400002098
:1016A000000020416800002064000020600000204D
:1016B000A69BC43A5C00002066A64C40F4000020C3
:1016C00008000020019004F0D1FA00224FF080437E
:1016D000CDE9020103F0BAFFCDE90401DDE90623FB
:1016E00003F0B4FFCDE90A0118991B9804F0DEFD60
:1016F0000490169904F0DAFD0590149904F0E2FACA
:1017000006902D9904F0CAFC079004F0AFFACDE9D9
:101710000801DDE90A2304F0BFF9CDE90E011899AB
:101720001B9804F0C3FD0490169904F0BFFD0590CA
:10173000149904F0C7FA06902C9904F0AFFC0790B6
:1017400004F094FACDE90A012E9804F08FFACDE95D
:1017500006011999179804F0A9FD019004F086FA82
:1017600000224FF08043CDE9020103F06FFFCDE985
:101770000401DDE9062300E0D5E003F067FFCDE9D1
:101780000801DDE90A2304F087F9CDE90C01DDE960
:101790000E2303F0ADFB4FF0C042644BCDE91001C6
:1017A00003F0BEFC624A634BCDE9120103F0B8FCC2
:1017B000CDE91C0100221346DDE91C0103F00AFFFC
:1017C00008D24FF0C0425C4BDDE91C0103F0A8FCDD
:1017D000CDE91C014FF0C042574BDDE91C0104F07C
:1017E00033F808D24FF0C042534BDDE91C0104F03E
:1017F00053F9CDE91C0151480CC8DDE91C0104F086
:101800004BF921F000414FF0C0424D4BCDE91201A0
:1018100003F0E0FE22D249480CC8DDE91C0104F0C7
:101820003BF9484A484BCDE90C0103F00FFFCDE9E5
:1018300010014648279904F031FC0D9004F016FA87
:10184000CDE90E01DDE9102303F06AFCCDE91201B8
:10185000DDE91C2303F064FCCDE91C0137480CC80A
:10186000DDE91C0104F018F921F000414FF0C042FD
:10187000334BCDE9120103F0E7FF22D82F480CC803
:10188000DDE91C0104F008F92E4A2F4BCDE90C01CB
:1018900003F0DCFECDE910012C48279904F0FEFB93
:1018A0000D9004F0E3F9CDE90E01DDE9102304F019
:1018B000F3F8CDE91201DDE91C2303F031FCCDE999
:1018C0001C0100221346DDE91C0103F083FE08D24F
:1018D0004FF0C042184BDDE91C0103F021FCCDE9BB
:1018E0001C014FF0C042144BDDE91C0103F0ACFFBA
:1018F00008D24FF0C042104BDDE91C0104F0CCF8D7
:10190000CDE91C010D4ADDE91C0103C24FF066322E
:101910000F4BDDE91C0103F099FECDE9120103F044
:10192000CDFB0C49886000BFFFF7F8BBFB21F93FF6
:101930009A7CB3CD8DE9A93FFB21194040000020DE
:10194000FB210940B81E85EB51B88E3F000080BFD7
:1019500066A64C40F400002070B506460C461546BD
:1019600006F57A605A21B0FBF1F02030FE4908708C
:1019700006F57A605A21B0FBF1F201FB120020302B
:10198000F949487004F57A605A21B0FBF1F0203033
:10199000F549887004F57A605A21B0FBF1F201FB39
:1019A00012002030F049C87005F57A605A21B0FB6A
:1019B000F1F02030EC49087105F57A605A21B0FB4E
:1019C000F1F201FB12002030E74948710621E64898
:1019D00000F00DFC70BD2DE9F05F05460E46174680
:1019E0009846DDE90BABDDF82890B124A520DE494F
:1019F00008705A20487010208870A120C870002DEF
:101A000002DAC5F5004005B2280AD8490870084630
:101A10000078D5490871D54800780444D3490D7041
:101A200008460078D0494871D04800780444002E18
:101A300002DAC6F5004006B2300ACC490870084602
:101A40000078C9498871C94800780444C7490E70B4
:101A500008460078C449C871C44800780444002F7F
:101A600002DAC7F5004007B2380AC04908700846D4
:101A70000078BD490872BD4800780444BB490F7026
:101A800008460078B8494872B84800780444B8F16C
:101A9000000F03DAC8F500400FFA80F84FEA18206B
:101AA000B249087008460078AF498872AF4800789C
:101AB0000444AE4981F8008008460078AA49C872FB
:101AC000AA4800780444B9F1000F03DAC9F50040D0
:101AD0000FFA80F94FEA1920A449087008460078E7
:101AE000A1490873A14800780444A04981F80090F6
:101AF000084600789C4948739C4800780444BAF131
:101B0000000F03DACAF500400FFA80FA4FEA1A20F4
:101B1000964908700846007893498873934800787E
:101B20000444924981F800A0084600788E49C873A1
:101B30008E48007804440C74AA20487412218A4804
:101B400000F055FBBDE8F09F2DE9F05F05460E461D
:101B500017469846DDE90BABDDF82890B124A521A6
:101B6000834802F056FC5A21814802F052FC1021B1
:101B70007F4802F04EFCA1217D4802F04AFC002D76
:101B800002DAC5F5004005B2280A7A49087008460D
:101B90000178774802F03DFC7648007804447549A6
:101BA0000D7008460178724802F033FC71480078E5
:101BB0000444002E02DAC6F5004006B2300A6D4930
:101BC0000870084601786A4802F023FC69480078EA
:101BD000044468490E7008460178654802F019FC13
:101BE000644800780444002F02DAC7F5004007B2C9
:101BF000380A60490870084601785D4802F009FC1F
:101C00005C48007804445B490F70084601785848E6
:101C100002F0FFFB574800780444B8F1000F03DAE4
:101C2000C8F500400FFA80F84FEA182051490870B3
:101C3000084601784E4802F0ECFB4E480078044418
:101C40004C4981F8008008460178494802F0E1FBE0
:101C5000484800780444B9F1000F03DAC9F50040A0
:101C60000FFA80F94FEA19204249087008460178B6
:101C70003F4802F0CEFB3F48007804443D4981F8DC
:101C80000090084601783A4802F0C3FB39480078D2
:101C90000444BAF1000F03DACAF500400FFA80FAE3
:101CA0004FEA1A203349087008460178304802F09C
:101CB000B0FB3048007804442E4981F800A0084663
:101CC00001782B4802F0A5FB2A4800780444E1B2D1
:101CD000274802F09EFBAA21254802F09AFBBDE8A6
:101CE000F09F2DE9F05F05460E4617469846DDE960
:101CF0000BABDDF82890B824A5211D4802F089FB24
:101D00005A211B4802F085FB1621194802F081FB7D
:101D1000A221174802F07DFB002D02DAC5F5004034
:101D200005B2280A1449087008460178104802F0E4
:101D300070FB1148007804440F490D700846017883
:101D40000B4802F066FB0C4800780444002E02DACF
:101D5000C6F5004006B2300A074908700846017807
:101D6000034802F056FB09E0F0010020B10000201A
:101D700000380140B2000020B3000020FA4800788B
:101D80000444F9490E7008460178F84802F041FB16
:101D9000F54800780444002F02DAC7F5004007B286
:101DA000380AF149087008460178F04802F031FB22
:101DB000ED4800780444EC490F7008460178EB4880
:101DC00002F027FBE84800780444B8F1000F03DA7A
:101DD000C8F500400FFA80F84FEA1820E249087071
:101DE00008460178E14802F014FBDF48007804441B
:101DF000DD4981F8008008460178DC4802F009FBE3
:101E0000D94800780444B9F1000F03DAC9F500405D
:101E10000FFA80F94FEA1920D34908700846017873
:101E2000D24802F0F6FAD04800780444CE4981F84E
:101E3000009008460178CD4802F0EBFACA480078D5
:101E40000444BAF1000F03DACAF500400FFA80FA31
:101E50004FEA1A20C449087008460178C34802F0C6
:101E6000D8FAC14800780444BF4981F800A0084668
:101E70000178BE4802F0CDFABB4800780444BBF1BB
:101E8000000F03DACBF500400FFA80FB4FEA1B206E
:101E9000B549087008460178B44802F0BAFAB24869
:101EA00000780444B04981F800B008460178AF4892
:101EB00002F0AFFAAC48007804440D98002804DA28
:101EC0000D98C0F5004000B20D900D98000AA6498B
:101ED000087008460178A54802F09BFAA2480078ED
:101EE0000444A1490D980870084601789F4802F003
:101EF00090FA9D48007804440E98002804DA0E9861
:101F0000C0F5004000B20E900E98000A9649087085
:101F100008460178954802F07CFA9348007804441A
:101F200091490E98087008460178904802F071FABD
:101F30008D4800780444E1B28C4802F06AFAAA2184
:101F40008A4802F066FABDE8F09F2DE9F05F054689
:101F50000E4617469846DDE90BABDDF82890B8240D
:101F6000A520834908705A20487016208870A22046
:101F7000C870002D02DAC5F5004005B2280A7D4977
:101F80000870084600787A4908717A480078044455
:101F900078490D7008460078754948717548007891
:101FA0000444002E02DAC6F5004006B2300A714938
:101FB0000870084600786E4988716E4800780444BD
:101FC0006C490E70084600786949C8716948007804
:101FD0000444002F02DAC7F5004007B2380A654909
:101FE0000870084600786249087262480078044424
:101FF00060490F70084600785D4948725D48007876
:102000000444B8F1000F03DAC8F500400FFA80F875
:102010004FEA1820574908700846007854498872DA
:10202000544800780444534981F8008008460078F9
:102030004F49C8724F4800780444B9F1000F03DAE1
:10204000C9F500400FFA80F94FEA19204949087094
:1020500008460078464908734648007804444549D4
:1020600081F800900846007841494873414800785B
:102070000444BAF1000F03DACAF500400FFA80FAFF
:102080004FEA1A203B49087008460078384988739F
:10209000384800780444374981F800A008460078A1
:1020A0003349C873334800780444BBF1000F03DAA6
:1020B000CBF500400FFA80FB4FEA1B202D4908703A
:1020C000084600782A4908742A48007804442949B7
:1020D00081F800B008460078254948742548007802
:1020E00004440D98002804DA0D98C0F5004000B2B1
:1020F0000D900D98000A1F490870084600781C4989
:1021000088741C48007804441A490D9808700846E1
:1021100000781749C8741748007804440E980028BE
:1021200004DA0E98C0F5004000B20E900E98000A36
:1021300010490870084600780D4908750D48007868
:1021400004440C490E980870084600780849487500
:102150000848007804448C75AA20C87518210448E2
:1021600000F045F8BDE8F09FB300002000380140C2
:10217000F0010020B40000202DE9F04107460D4693
:1021800016461C460121084601F07BF8384600F04F
:102190003FFC2548048025480560466010202349FF
:1021A00088600846C46000200861802048610020E3
:1021B0008861C86108624FF48050486200208862DC
:1021C000384600F0C7FCBDE8F08110B50446002198
:1021D000204600F0EAFC144800881449C8601448FE
:1021E00000F0B8FC0121204600F0DFFC10BD70B506
:1021F00004460D462B4622460E490D48FFF7BCFF0C
:10220000012280210B48001F02F0BAF80848FFF7AE
:10221000DCFF00BF4FF4005000F0E2FC0128F9D1D0
:10222000400300F0F1FC70BDB60000200802002061
:10223000440002400438014010B5182200213C201F
:10224000FEF7BBFA002202213C20FEF7B6FA10BDD1
:102250007CB5044606236A4603213C20FEF717FBA3
:1022600010B39DF801009DF8001040EA0120573896
:1022700000B220809DF805009DF8041040EA01207E
:1022800000B200F11A0542F6A300684342F2107151
:1022900090FBF1F528B260809DF803009DF80210D4
:1022A00040EA012000B2A0807CBD2DE9F04788B053
:1022B0000446B4F90050B4F90260B5F5004F01DBF3
:1022C000681C05B2B6F5004F01DB701C06B228464B
:1022D00003F069F907468846304603F064F93A4648
:1022E0004346CDE9000102F003FE124A124BCDE94C
:1022F000020103F0ABF90022104BCDE9040102F01A
:102300000FFFCDE9060102F0D9FE8146484603F0F1
:1023100059FE1FFA80FACDF800A0B4F90430B4F9E0
:102320000220B4F9001006A002F05AF908B0BDE886
:10233000F0870000775AF01ADCA54C400080664018
:10234000484D43353838334C3A0968783A202534BB
:10235000642C0968793A202534642C09687A3A207B
:102360002534642C092534640A0D00000EB54FF0A5
:10237000000AD346FDF7E7FF322000F00EFA3EA038
:1023800002F02EF90021A620FEF759FA82460F210D
:10239000D220FEF754FA8346BAF1E50F06D1BBF11D
:1023A000D30F03D138A002F01BF907E005E03AA0F3
:1023B00002F016F9642000F0F0F9F8E73FA002F00F
:1023C0000FF9FEF7A5FA49A002F00AF94D48FFF708
:1023D0003FFF4C49B1F9020003F0E5F806460F460D
:1023E0004849B1F9000003F0DEF8804632463B462A
:1023F00002F07EFD04464FF0C042434B02F090FED7
:10240000424A03C20121424801F0DCFB33E041486B
:10241000007801282FD100203E4908703E4801680D
:102420003E4803F03BFE80463D4903F037FE074639
:1024300003F0ACFD04B238484168384803F02EFE82
:102440008046374903F02AFE074603F09FFD05B298
:1024500031498868324903F021FE074603F096FDB2
:1024600006B20020009001900346224629460290C1
:102470003046FFF7B0FACAE7D3B2BCFEB3F5CABC28
:10248000BBAFCDEAB3C90A00C9E8B1B84944D1E944
:10249000D6A4B3C9B9A60A00C9E8B1B8D3B2BCFE84
:1024A000D1E9D6A4B4EDCEF32D2D2DC7EBBCECB203
:1024B000E9494943C1ACCFDF0A000000CDD3C2DDFA
:1024C000D2C7B5C4CBAEC6BDD0A3D7BC2D2DC7EBEC
:1024D000B1A3B3D6C9E8B1B8CBAEC6BDBEB2D6B90A
:1024E000D6C1C9D933C3EB0A00000000CDD3C2DD89
:1024F000D2C7BEB2CCACCEF3B2EED0A3D7BCCDEA3D
:10250000B3C90A00B8000020FB21094040000020A8
:10251000000C004007000020F4000020000080BFF5
:1025200000002041704700BFFEE700BFFEE700BF8C
:10253000FEE700BFFEE77047704770477047000036
:102540000CB50020019000906C48006840F4803089
:102550006A49086000BF6948006800F400300090D4
:102560000198401C0190009818B90198B0F5A06F2F
:10257000F1D16248006800F4003010B101200090F1
:1025800001E0002000900098012843D15C480068D9
:1025900040F010005A4908600846006820F0030027
:1025A00008600846006840F0020008605348406830
:1025B000524948600846406848600846406840F410
:1025C000806048600846406820F47C1048600846F7
:1025D000406840F4E81048600846006840F08070A9
:1025E000086000BF4548006800F000700028F9D07E
:1025F0004248406820F0030040494860084640686F
:1026000040F00200486000BF3C48406800F00C0009
:102610000828F9D10CBD10B5FFF792FF10BD10B519
:102620003648006840F001003449086008464068B8
:10263000344908403149486008460068324908403A
:102640002E4908600846006820F48020086008468B
:10265000406820F4FE0048604FF41F008860FFF7D8
:10266000DAFF4FF000602949086010BD10B5002165
:1026700000200022214B5B6803F00C0121B10429EA
:1026800006D0082928D107E0214B224C236027E0FF
:102690001F4B204C236023E0184B5B6803F4701041
:1026A000164B5B6803F48032022303EB904022B99F
:1026B000194B4343174C23600DE0104B5B6803F448
:1026C000003323B1144B4343124C236003E0104BFF
:1026D0004343104C236003E00D4B0E4C236000BFBE
:1026E00000BF064B5B68C3F303130C4CE15C094B62
:1026F0001B68CB40074C236010BD00000010024057
:10270000002002400000FFF8FFFFF6FE08ED00E0A9
:1027100000127A00C000002000093D00C400002023
:1027200010B56FF0040000F054F92E4800682E49EF
:10273000B0FBF1F02D4908700846007800EB40012D
:10274000C1EBC0104FF6FF7101EAC00028490880B4
:1027500010BD0146254A12784A434FF0E0235A61E2
:1027600000229A611A46126942F001021A6100BF02
:102770004FF0E022106900F001021AB100F480323B
:10278000002AF5D04FF0E022126922F001024FF04A
:10279000E0231A6100229A6170470146144A1288A8
:1027A0004A434FF0E0235A6100229A611A461269A7
:1027B00042F001021A6100BF4FF0E022106900F000
:1027C00001021AB100F48032002AF5D04FF0E02265
:1027D000126922F001024FF0E0231A6100229A618F
:1027E00070470000C000002000127A00D4000020D2
:1027F000D6000020014600BF704700BF494A12883A
:1028000002F04002002AF9D0C2B2464B1B1D1A80CA
:10281000704710B586B00446012144F2040000F070
:102820003DFD4FF40070ADF8140003208DF8160044
:1028300018208DF8170005A93B4800F073FA4FF4F3
:102840008060ADF8140004208DF8170005A9364803
:1028500000F068FA25208DF8000003208DF80100B3
:102860008DF8020001208DF80300684600F067F83B
:1028700001940020ADF80800ADF80A00ADF80C0096
:10288000ADF810000C20ADF80E0001A9254801F0AC
:10289000BAFC012240F22551224801F04CFD0121F1
:1028A000204801F03CFD06B010BD10B540F22551A6
:1028B0001C4801F02FFE10B31A4801F0B8FDC4B255
:1028C0001A48008800F40040C8B91848008800F48D
:1028D000804060B10A2C03D000201449088020E019
:1028E0001248008840F400401049088019E00D2C7F
:1028F00006D10E48008840F480400C49088010E062
:102900000A480088C0F30D0009490C5407480088A4
:10291000401C0649088008460088C72801DD0020C1
:10292000088010BD0038014000080140DC00002094
:102930003402002031490143314A1160704770B5BB
:10294000002100230F22C47804B32D4C246804F422
:10295000E064C4F5E064210AC1F10403CA4044788C
:1029600004FA03F18478144021430901254C0678C8
:10297000A155047804F01F050124AC4005786D11C1
:10298000AD0005F1E025C5F8004109E0047804F048
:102990001F050124AC401C4D0678761145F82640F1
:1029A00070BD1A4A0A400243154B1B1F1A6070473C
:1029B00039B1134A121D12680243114B1B1D1A60D4
:1029C00006E00F4A121D126882430D4B1B1D1A6050
:1029D0007047042808D14FF0E021096941F0040153
:1029E0004FF0E022116107E04FF0E021096921F08A
:1029F00004014FF0E0221161704700000000FA0569
:102A00000CED00E000E400E080E100E080FFFF1F4B
:102A100001684FF6FE7211400160002101604160C3
:102A20008160C1608D49884208D18C490839496864
:102A300041F00F01894A083A51608AE08749143110
:102A4000884208D185490839496841F0F001834A34
:102A5000083A51607DE081492831884208D17F4998
:102A60000839496841F470617C4A083A516070E065
:102A70007A493C31884208D178490839496841F49B
:102A80007041764A083A516063E074495031884297
:102A900008D172490839496841F470216F4A083AEF
:102AA000516056E06D496431884208D16B4908395C
:102AB000496841F47001694A083A516049E0674940
:102AC0007831884208D165490839496841F0706118
:102AD000624A083A51603CE06149884206D1011FD0
:102AE000096841F00F01021F116032E05C491431A6
:102AF000884208D15A49091F096841F0F001584A33
:102B0000121F116025E056492831884208D15449E6
:102B1000091F096841F47061514A121F116018E0E1
:102B20004F493C31884208D14D49091F096841F499
:102B300070414B4A121F11600BE0494950318842E5
:102B400007D14749091F096841F47021444A121FFF
:102B50001160704710B50022026847F6F0739A437F
:102B60000C6A8B6823430C6923434C6923438C69AB
:102B70002343CC6923434C6A23438C6A23431A437F
:102B80000260CB6843600B6883604B68C36010BD14
:102B90000021016041608160C1600161416181612A
:102BA000C161016241628162704721B1026842F0F5
:102BB0000102026004E002684FF6FE731A400260F0
:102BC00070471AB103680B43036002E003688B434C
:102BD00003607047416070470146486880B27047A3
:102BE00001460020002201F080531BB11C4B083B22
:102BF0001A6802E0194B083B1A6802EA01030BB19C
:102C0000012000E00020704700F0805119B1144904
:102C1000091F086002E01149083948607047014601
:102C20000020002201F080531BB10D4B083B1A68B5
:102C300002E00A4B083B1A6802EA01030BB10120CB
:102C400000E00020704700F0805119B10449091FCD
:102C5000086002E0014908394860704708000240F6
:102C60000804024010B50446CC48844208D1012132
:102C7000042000F02DFB0021042000F029FB46E099
:102C8000C748844208D10121082000F021FB00211F
:102C9000082000F01DFB3AE0C248844208D101211F
:102CA000102000F015FB0021102000F011FB2EE099
:102CB000BD48844208D10121202000F009FB0021F9
:102CC000202000F005FB22E0B848844208D1012111
:102CD000402000F0FDFA0021402000F0F9FA16E053
:102CE000B348844208D10121802000F0F1FA00218C
:102CF000802000F0EDFA0AE0AE48844207D10121BD
:102D0000801500F0E5FA0021A01500F0E1FA10BDF1
:102D100010B50121084600F0DBFA0021012000F087
:102D2000D7FA10BD2DE9F04102460025002600200B
:102D300000230024002791F803C00CF00F0591F840
:102D400003C00CF0100CBCF1000F03D091F802C0CE
:102D50004CEA050591F800C0BCF1000F31D01468B1
:102D600000202BE04FF0010C0CFA00F3B1F800C08A
:102D70000CEA03069E4220D183004FF00F0C0CFAA0
:102D800003F7BC4305FA03FC4CEA040491F803C0C2
:102D9000BCF1280F06D14FF0010C0CFA00FCC2F870
:102DA00014C00AE091F803C0BCF1480F05D14FF000
:102DB000010C0CFA00FCC2F810C0401C0828D1D34A
:102DC0001460B1F800C0BCF1FF0F34DD546800207E
:102DD0002EE000F1080C4FF0010808FA0CF3B1F8EE
:102DE00000C00CEA03069E4221D183004FF00F0C75
:102DF0000CFA03F7BC4305FA03FC4CEA040491F80F
:102E000003C0BCF1280F05D100F1080C08FA0CF83A
:102E1000C2F8148091F803C0BCF1480F07D100F14B
:102E2000080C4FF0010808FA0CF8C2F81080401C9A
:102E30000828CED35460BDE8F0814FF6FF710180C1
:102E4000022181700421C1707047024600209368FE
:102E50000B400BB1012000E000207047014688685C
:102E600080B2704702460020D3680B400BB10120AE
:102E700000E0002070470146C86880B270470161D9
:102E80007047416170470AB1016100E041617047DC
:102E9000C16070474FF480320A4382618161826170
:102EA00082698269704702460020434B18684FF6DA
:102EB0008073184040EA021008433F4B1860704787
:102EC0003E49C8617047F0B50A460023002400213E
:102ED000002500F00046B6F1004F02D1364EF169F0
:102EE00001E0354E7168C0F3034583B200F440162B
:102EF000B6F5401F08D121F070612F4E766826F09C
:102F000070662D4F7E6012E000F48016B6F5801FCB
:102F100006D1032606FA05F4A14341F0706106E0EC
:102F2000460D360103FA06F6B14341F0706122B155
:102F3000460D360103FA06F6314300F00046B6F1BD
:102F4000004F02D11C4EF16101E01B4E7160F0BDDB
:102F500030B500228B071C0F0F2303FA04F2164B27
:102F600008338C1053F824309343134C08348D10DD
:102F700044F8253023468C1053F824308C07240F56
:102F800000FA04F423430C4C08348D1044F8253027
:102F900030BD0A49DC31086070470000000801407C
:102FA000000C0140001001400014014000180140D5
:102FB000001C0140002001400000014000002042B0
:102FC000DF48006840F00100DD49086008464068BD
:102FD000DC490840DA49486008460068DA49084098
:102FE000D74908600846006820F480200860084639
:102FF000406820F4FE0048604FF41F00886070476E
:10300000CF49096821F48031CD4A11601146096821
:1030100021F480211160B0F5803F03D0B0F5802FFE
:103020000ED106E0C649096841F48031C44A1160F6
:1030300007E0C349096841F4A021C14A116000E0DA
:1030400000BF00BF704710B50146002200230020DA
:103050004A11012A02D1BA4C236806E0022A02D1A1
:10306000B74C236A01E0B64C636A01F01F020124E9
:1030700094401C400CB1012000E0002010BD38B588
:10308000002000900024002500BF3120FFF7DBFF67
:1030900005460098401C00900098B0F5A06F01D044
:1030A000002DF2D03120FFF7CEFF08B1012400E05F
:1030B0000024204638BD01460020A14A106820F0B7
:1030C000F80040EAC10010607047A04908607047EE
:1030D000024600209A4B586820F47C1042EA010313
:1030E0001843974B586070479849086670470146E7
:1030F0000020934A506820F0030008435060704756
:103100008F48406800F00C007047014600208C4A50
:10311000506820F0F00008435060704701460020DE
:10312000874A506820F4E0600843506070470146C9
:103130000020834A506820F4605040EAC10050608B
:10314000704729B17E4A527A02437D4B5A7204E09D
:103150007B4A527A82437A4B5A7270477B49D83104
:103160000860704701460020754A506820F44040CE
:103170000843506070470021714A20321170704A34
:1031800082F82010012802D004280AD104E001218D
:103190006B4A2032117005E00521694A2032117016
:1031A00000E000BF00BF704769490860704764498C
:1031B000096A0143624A11627047654944390860EF
:1031C000704730B500210022002400235C4D6D685B
:1031D00005F00C0121B1042905D0082923D105E00F
:1031E0005C4D056022E05B4D05601FE0544D6D684D
:1031F00005F47012524D6D6805F48034022505EB1C
:1032000092421CB9544D554305600BE04C4D6D681E
:1032100005F400351DB1504D5543056002E04D4D9C
:103220005543056002E04B4D056000BF00BF444DB3
:103230006D6805F0F0010909484D6B5C0568DD40DB
:1032400045603F4D6D6805F4E061090A434D6B5CD4
:103250004568DD4085603A4D6D6805F46051C90AE6
:103260003E4D6B5C4568DD40C560354D6D6805F4CD
:103270004041890B3A4D6B5CC568B5FBF3F50561C0
:1032800030BD29B12E4A526902432D4B5A6104E0E8
:103290002B4A526982432A4B5A61704729B1284A06
:1032A00092690243264B9A6104E0254A926982435F
:1032B000234B9A61704729B1214AD2690243204BBE
:1032C000DA6104E01E4AD26982431D4BDA6170471D
:1032D00029B11B4AD2680243194BDA6004E0184A4C
:1032E000D2688243164BDA60704729B1144A1269DA
:1032F0000243134B1A6104E0114A12698243104BD6
:103300001A61704712494039086070470F49C86414
:1033100070470B49C87170470948406A40F0807097
:1033200007494862704701460020054A92680A40F2
:103330000AB1012000E000207047014988727047FF
:10334000001002400000FFF8FFFFF6FE00004242BE
:103350008004424200127A0000093D00DE00002095
:10336000EE00002010B50446FE48844208D1012139
:10337000C014FFF7ADFF0021E014FFF7A9FFC4E080
:10338000B4F1804F08D101210846FFF7AEFF0021BC
:103390000120FFF7AAFFB8E0F348844208D10121D9
:1033A0000220FFF7A2FF00210220FFF79EFFACE002
:1033B000EE48844208D101210420FFF796FF002146
:1033C0000420FFF792FFA0E0E948844208D10121E0
:1033D0000820FFF78AFF00210820FFF786FF94E00E
:1033E000E448844208D101211020FFF77EFF00212C
:1033F0001020FFF77AFF88E0DF48844208D10121DE
:103400002020FFF772FF00212020FFF76EFF7CE0F5
:10341000DA48844208D101214014FFF759FF002106
:103420006014FFF755FF70E0D548844209D10121AF
:10343000C804FFF74DFF00214FF40020FFF748FFBD
:1034400063E0D048844209D101210805FFF740FF1D
:1034500000214FF48010FFF73BFF56E0CA4884423A
:1034600009D101214805FFF733FF00214FF4001077
:10347000FFF72EFF49E0C548844208D101214020D2
:10348000FFF733FF00214020FFF72FFF3DE0C0484A
:10349000844208D101218020FFF727FF00218020EE
:1034A000FFF723FF31E0BB48844208D1012180159A
:1034B000FFF71BFF0021A015FFF717FF25E0B64817
:1034C000844209D101210804FFF702FF00214FF4D3
:1034D0008030FFF7FDFE18E0B048844209D1012199
:1034E0004804FFF7F5FE00214FF40030FFF7F0FE2F
:1034F0000BE0AB48844208D101218804FFF7E8FEC5
:1035000000214FF48020FFF7E3FE10BD0022028867
:10351000944B98420ED0994B98420BD0B0F1804F0B
:1035200008D0914B984205D0904B984202D0904BD6
:10353000984204D14FF68F731A404B881A438D4B33
:10354000984207D08C4B984204D04FF6FF431A4064
:10355000CB881A4302808B8883850B880385814B37
:1035600098420BD0854B984208D08B4B984205D09F
:103570008A4B984202D08A4B984201D10B7A03863B
:1035800001238382704770B5002400220023058C3C
:103590004FF6FE7635400584028C8388048B4FF607
:1035A0008F752C40B51E2C400D882C43751E2A406B
:1035B0000D892A434D882A436A4DA8420BD06F4D8E
:1035C000A84208D0744DA84205D0744DA84202D03C
:1035D000734DA84213D14FF6F7752A404D892A43FF
:1035E0004FF6FB752A408D882A434FF6FF652B4026
:1035F0004FF6FF552B408D892B43CD892B4383807C
:103600000483CD888586028470BD70B500240022B5
:103610000023058C4FF6EF7635400584028C8388B5
:10362000048B48F6FF752C404FF6FF452C400D8863
:103630004FF6FF7606EA05252C434FF6DF752A4044
:103640000D8906EA05152A434D8806EA05152A4321
:10365000444DA84202D0494DA8421DD14FF67F7576
:103660002A404D894FF6FF7606EA05152A434FF6A4
:10367000BF752A408D8806EA05152A434FF6FF35A7
:103680002B404FF2FF752B408D8906EA85052B43B1
:10369000CD8906EA85052B4383800483CD88058781
:1036A000028470BD70B5002400220023058C4FF603
:1036B000FF6635400584028C8388848B4FF68F75B6
:1036C0002C404FF6FC752C400D882C434FF6FF55CF
:1036D0002A400D894FF6FF7606EA05252A434D88D4
:1036E00006EA05252A431F4DA84202D0234DA842D1
:1036F0001DD14FF2FF752A404D894FF6FF7606EA3D
:1037000005252A434FF6FF352A408D8806EA052510
:103710002A434EF6FF752B404DF6FF752B408D89E1
:1037200006EA05152B43CD8906EA05152B43838050
:103730008483CD888587028470BD70B50022002304
:103740000024058C4EF6FF7635400584038C848872
:10375000828B48F6FF752A404FF6FF452A400D88B8
:1037600020E00000002C0140000400400008004060
:10377000000C0040001000400014004000340140E4
:10378000004C01400050014000540140001800402E
:10379000001C004000200040004001400044014067
:1037A000004801404FF6FF7606EA05252A434DF60C
:1037B000FF752B400D8906EA05352B434D8806EA37
:1037C00005352B43FA4DA84202D0FA4DA84208D144
:1037D0004BF6FF752C408D894FF6FF7606EA85156E
:1037E0002C4384808283CD88A0F84050038470BD30
:1037F000828B4FF2FF331A408283828B4FF6FF7326
:1038000003EA01231A4382837047F0B50C4615463C
:10381000002200210026078C4EF6FF7C07EA0C07E9
:103820000784828B018C4FF6FF7707EA043640F657
:10383000FF473A404FF6FF7707EA05273A434FF62E
:10384000FF7707EA03373A43D94FB8420ED0D94F32
:10385000B8420BD0B0F1804F08D0D74FB84205D056
:10386000D64FB84202D0D64FB84206D14DF6FF77B8
:10387000394046F48057394305E047F6FF57394051
:1038800044F48057394382830184F0BD828B4FF624
:10389000F3731A408283828B0A4382837047F0B5A8
:1038A0000C461546002200210026078C4FF6FF6CBF
:1038B00007EA0C070784828B018C4FF6FF7707EA33
:1038C00004264FF60C773A404FF6FF7707EA0317C6
:1038D0002F433A43B64FB8420ED0B64FB8420BD042
:1038E000B0F1804F08D0B44FB84205D0B34FB842C2
:1038F00002D0B34FB84206D14FF6FF57394046F4D5
:103900008077394305E04FF2FF57394044F4807720
:10391000394382830184F0BD028B4FF2FF331A409A
:103920000283028B4FF6FF7303EA01231A430283DB
:103930007047F0B50C461546002200210026078C82
:103940004FF6EF7C07EA0C070784028B018C4FF6D9
:10395000FF7707EA041640F6FF473A404FF6FF7735
:1039600007EA03373A434FF6FF7707EA05273A435A
:103970008F4FB8420ED08F4FB8420BD0B0F1804F6E
:1039800008D08D4FB84205D08C4FB84202D08C4F32
:10399000B84206D14FF6DF77394046F01007394379
:1039A00005E04FF65F77394044F010073943028352
:1039B0000184F0BD028B4FF6F3731A400283028B31
:1039C0000A4302837047F0B50C46154600220021D9
:1039D000068C4FF6FE773E400684028B018C4FF634
:1039E0000C7632407E1C06EA03162E433243704E9C
:1039F000B0420ED06F4EB0420BD0B0F1804F08D025
:103A00006D4EB04205D06D4EB04202D06C4EB04209
:103A100006D14FF6FD76314044F00106314305E012
:103A20004FF6F576314044F00106314302830184BC
:103A3000F0BD70B505460C465D4885420ED05D4828
:103A400085420BD0B5F1804F08D05B48854205D048
:103A50005A48854202D05A48854200D100E000BF52
:103A6000208850B92389A28861882846FFF7ABFFD8
:103A7000E1882846FFF79EFF25E0208804280AD128
:103A80002389A28861882846FFF753FFE1882846EA
:103A9000FFF742FF17E0208808280AD12389A2886F
:103AA00061882846FFF7FBFEE1882846FFF7EEFE17
:103AB00009E02389A28861882846FFF7A6FEE188ED
:103AC0002846FFF795FE70BD2DE9F04105460C46EE
:103AD00000260127608808B9022600E00026A08899
:103AE000012801D1022700E001272088A0B92389FD
:103AF000A28861882846FFF766FFE1882846FFF71D
:103B000059FF23893A4631462846FFF712FFE188DC
:103B10002846FFF701FF13E02389A2886188284621
:103B2000FFF707FFE1882846FFF7F6FE23893A46AC
:103B300031462846FFF747FFE1882846FFF73AFF5E
:103B4000BDE8F0810A884B881A438B881A43CB88DA
:103B50001A430B891A434B891A438B891A43A0F8DD
:103B6000442070474FF6FF71818000210180C180A1
:103B70004180017270470021018041808180C180B5
:103B8000018141818181C181704700210180418093
:103B9000012181800021C1800181704700210180C5
:103BA00041808180C1800181418181817047000015
:103BB000002C014000340140000400400008004097
:103BC000000C004021B1028842F00102028004E0B2
:103BD00002884FF6FE731A400280704731B1B0F888
:103BE000442042F40042A0F8442005E0B0F844200C
:103BF000C2F30E02A0F8442070471AB183890B4328
:103C0000838102E083898B4383817047818270477F
:103C100041EA0203A0F8483070471AB183890B4388
:103C2000838102E083898B438381704701894FF64A
:103C3000F8721140018170470A46002101894FF650
:103C40008F73194011430181704730B504460D460A
:103C500029462046FFF7F0FF208940F00700208129
:103C600030BD2DE9F04104460D4616461F46602D35
:103C700006D13B46012231462046FFF75AFE05E0B9
:103C80003B46012231462046FFF79DFE294620464D
:103C9000FFF7D2FF208940F007002081BDE8F081C6
:103CA00030B50C4600210189C9B24FF6FF7505EA0F
:103CB0000325154325432943018130BD2DE9F041FA
:103CC00005460E4617469846002443463A46314676
:103CD0002846FFF7E5FF2C894FF6F870044044F0C2
:103CE00007044FF68F70044044F070042C81BDE847
:103CF000F081F0B504460D4616461F463B46324657
:103D000029462046FFF7CCFF208940F480402081DF
:103D1000F0BD0185828270470A46002101884FF676
:103D20008F731940114301807047F0B50C4615465A
:103D30001E460021002200230189028B038C4FF6CE
:103D4000F877394021434FF6FC473A4040F20117DB
:103D50003A434FF6DD773B404FF6FF7707EA061709
:103D60002F433B43018102830384F0BD0A460021B7
:103D7000018B4FF68F7319401143018370470A4638
:103D80000021018B48F6FF7319404FF6FF7303EAD9
:103D900002231943018370470A460021818B4FF6A5
:103DA0008F7319401143818370470A460021818B2C
:103DB00048F6FF7319404FF6FF7303EA02231943D5
:103DC0008183704721B1028842F08002028004E0C2
:103DD00002884FF67F731A400280704721B18288B3
:103DE00042F00402828004E082884FF6FB731A409E
:103DF0008280704721B1828842F00802828004E00C
:103E000082884FF6F7731A408280704721B182880A
:103E100042F00102828004E082884FF6FE731A406D
:103E2000828070470A460021018B4FF6F7731940D4
:103E30001143018370470A460021018B4FF2FF7343
:103E400019404FF6FF7303EA0223194301837047B9
:103E50000A460021818B4FF6F77319401143818385
:103E600070470A460021818B4FF2FF7319404FF6CD
:103E7000FF7303EA02231943818370470A46002136
:103E8000018B4FF6FB7319401143018370470A46BB
:103E90000021018B4FF6FF3319404FF6FF7303EA01
:103EA00002231943018370470A460021818B4FF694
:103EB000FB7319401143818370470A460021818BAF
:103EC0004FF6FF3319404FF6FF7303EA02231943FD
:103ED000818370470A460021018B4FF67F7319409A
:103EE0001143018370470A460021018BC1F30E0183
:103EF0004FF6FF7303EA02231943018370470A4612
:103F00000021818B4FF67F731940114381837047E5
:103F10000A460021818BC1F30E014FF6FF7303EABD
:103F200002231943818370470A460021018C4FF612
:103F3000FD7319401143018470470A460021018C2A
:103F40004FF6F77319401143018470470A46002168
:103F5000018C4FF6DF7319404FF6FF7303EA02132B
:103F60001943018470470A460021018C4FF67F7384
:103F700019404FF6FF7303EA021319430184704797
:103F80000A460021018C4FF6FF5319404FF6FF738C
:103F900003EA02231943018470470A460021018C79
:103FA0004FF2FF7319404FF6FF7303EA02231943E0
:103FB000018470470A460021018C4DF6FF731940B9
:103FC0004FF6FF7303EA023319430184704730B59B
:103FD000002301248C40A3B2048C9C430484048CF1
:103FE00002FA01F5ADB22C43048430BD30B5002394
:103FF00004248C40A3B2048C9C430484048C02FAF5
:1040000001F5ADB22C43048430BD70B503460020E9
:1040100000241846183001258D40ACB21D8CA543F4
:104020001D8409B1082909D100EB6100056825F05C
:10403000700505600568154305600EE00D1FC5F3AA
:104040004E052844056825F4E045056005684FF6EF
:10405000FF7606EA02263543056070BD21B102886D
:1040600042F00202028004E002884FF6FD731A401B
:104070000280704721B1028842F00402028004E00D
:1040800002884FF6FB731A400280704721B1828884
:1040900042F08002828004E082884FF67F731A40EB
:1040A0008280704702884FF6F7731A4002800288B8
:1040B0000A430280704782884FF68F731A408280CD
:1040C00082880A438280704702894FF6F8731A404B
:1040D000028102890A430281704702894FF67F7389
:1040E0001A40028102890A43028170478184704725
:1040F0008185704781867047018770478187704747
:10410000A0F84010704702884FF6FF431A40028023
:1041100002880A43028070470146888E7047014634
:10412000088F70470146888F70470146B1F84000FC
:1041300070470146888C70470146088D70470246DB
:104140000020138A0B400BB1012000E000207047D3
:10415000CA430282704730B5024600200023002483
:10416000158A05EA0103958905EA010413B10CB12A
:10417000012000E0002030BDCA43028270470000E9
:1041800010B50446F748844209D101218803FFF79E
:104190009FF800214FF48040FFF79AF832E0F24890
:1041A000844209D101214804FFF79FF800214FF410
:1041B0000030FFF79AF825E0EC48844209D101214C
:1041C0008804FFF792F800214FF48020FFF78DF864
:1041D00018E0E748844209D10121C804FFF785F8B7
:1041E00000214FF40020FFF780F80BE0E148844203
:1041F00008D101210805FFF778F800214FF480105D
:10420000FFF773F810BD2DE9F04786B005460E465E
:104210000024A24600BFA1460027B08900B100BF1C
:104220002F462C8A4CF6FF700440F08804432C8201
:10423000AC894EF6F3100440B08831890843718987
:1042400008430443AC81AC8A4FF6FF400440B08978
:104250000443AC8201A8FEF7B4FFC248874202D1F2
:10426000DDF810A001E0DDF80CA0A88900F4004002
:1042700040B10AEBCA0000EB0A1031684900B0FBFC
:10428000F1F807E00AEBCA0000EB0A103168890078
:10429000B0FBF1F86420B8FBF0F0040120096421C0
:1042A00001FB1089A88900F4004040B1322000EBE6
:1042B000C900B0FBF1F000F00700044308E0322031
:1042C00000EB09106421B0FBF1F000F00F00044393
:1042D0002C8106B0BDE8F0874FF416510160002133
:1042E0008180C18001810C21418100218181704741
:1042F00010B502460020108A4FF2FF0318400B88C9
:104300004C8823438C882343CC8823431843108252
:1043100010BD0021018041808180C180704721B1A2
:10432000828942F40052828104E082894DF6FF7353
:104330001A4082817047F0B503460024002600250C
:10434000002040F66A17B94200D100BF1846C1F3F9
:10435000421401F01F06012707FA06F5012C01D1CE
:104360000C3004E0022C01D1103000E014301AB1FE
:1043700007682F43076002E00768AF430760F0BD9E
:104380001AB1838A0B43838202E0838A8B43838240
:104390007047028A4FF6F0731A400282028A0A437B
:1043A0000282704782894FF2FF731A4082818289AC
:1043B0000A438281704721B1828942F002028281E0
:1043C00004E082894FF6FD731A4082817047028AA9
:1043D0004FF6DF731A400282028A0A430282704754
:1043E00021B1028A42F48042028204E0028A4BF642
:1043F000FF731A400282704702460020B1F5007F29
:1044000000D100BF13880B400BB1012000E0002059
:10441000704730B504460D46C5F30800A08000BFC4
:1044200080212046FFF7E8FF0028F9D030BD014683
:104430008888C0F308007047818941F001018181BB
:104440007047028BD2B20283028B42EA01220283BE
:104450007047028B02F47F420283028B0A4302837D
:10446000704721B1828A42F02002828204E0828A6F
:104470004FF6DF731A408282704721B1828A42F080
:104480001002828204E0828A4FF6EF731A40828221
:10449000704721B1828A42F00802828204E0828A57
:1044A0004FF6F7731A408282704721B1828942F435
:1044B0000042828103E08289C2F30E02828170474A
:1044C00021B1828A42F40062828204E0828A4FF241
:1044D000FF731A4082827047828A4FF6FB731A403C
:1044E0008282828A0A438282704721B1828A42F0A4
:1044F0000202828204E0828A4FF6FD731A408282B1
:10450000704701F40072B2F5007F00D100BFCA43CA
:104510000280704770B50246002400230025002069
:1045200040F66A16B14200D100BFC1F3421501F056
:104530001F03012606FA03F3012D02D196893340A9
:1045400006E0022D02D1168A334001E0968A3340FC
:104550000C12012606FA04F41688344063B15CB1EB
:1045600001200AE0003801400044004000480040BB
:10457000004C004000500040002070BD10B50022EB
:10458000002340F66A14A14200D100BF0A120124A0
:104590009440A3B2DC43048010BD0000094880476A
:1045A00009480047FEE7FEE7FEE7FEE7FEE7FEE715
:1045B000FEE7FEE7FEE7FEE704480549054A064B2D
:1045C000704700001F26000831010008600300202A
:1045D0006009002060050020600500207047000091
:1045E0000FB4044910B503AA029800F057F910BCA3
:1045F0005DF814FBD800002070B50446856900689A
:10460000C10601D5302600E02026C00707D070BDC6
:10461000D4E9012130469047206A401C20626D1E7B
:10462000F6D570BD70B5044685690078C00707D11E
:1046300070BDD4E9012120209047206A401C2062EF
:104640006D1EF6D570BD00002DE9F0410646002430
:1046500010687529314615A510D0AFF300800028E9
:1046600002DA404212A507E031688A0701D511A598
:1046700002E0490704D510A5012401E0AFF3008052
:1046800000210A2306F1240707E0B0FBF3F203FB45
:104690001200303078541046491C0028F5D12346CA
:1046A0002A463046BDE8F04100F09EB80000000008
:1046B0002D0000002B000000200000002DE9F04735
:1046C0004FF0000A89460446C0F820A02046E16861
:1046D0008847002876D0252806D0D4E901219047C4
:1046E000206A401C2062F1E7E168204600258847E7
:1046F000C4F81CA006460027C4F818A02A2E09D02A
:10470000304600F09DF938B304EB8708303EC8F816
:10471000186019E059F8041B204604EB87029161E8
:10472000E1688847012F064618D1E069002820DAA1
:1047300025F020051DE0D8F8180000EB800006EBFE
:1047400040003038C8F818002046E168884706461F
:1047500000F076F90028EED1012F0AD02E2E08D1D4
:104760002046E16888477F1C0646022F45F0200559
:10477000C4DBA069002803DA404245F00105A061CE
:10478000E80701D025F01005B6B1A6F141001928BF
:1047900002D8203645F400654A4631462046256059
:1047A0004D46FBF7FFFC58B1012806D0ED1D25F062
:1047B000070000F1080989E704E005F1040985E72D
:1047C00030468AE7206ABDE8F08770477047704737
:1047D000704710B500F074F8006810BD10B50446BD
:1047E00000F06EF8046010BD2DE9F0470D469946C3
:1047F0009246044600F124080168880604D5E06961
:1048000021F01001216000E00120A84201DD471BDA
:1048100000E00027A1697A1902EB0900081AA061DB
:104820002078C00602D42046FFF7E6FE002608E006
:10483000D4E901211AF806009047206A401C761C32
:1048400020624E45F4DB2078C0060AD52046FFF7EB
:10485000D3FE06E0D4E9012130209047206A401CB5
:104860002062381EA7F10107F4DC07E0D4E901213A
:1048700018F805009047206A401C2062281EA5F108
:104880000105F3DC2046FFF7CDFE2078000602D5B7
:104890000220BDE8F0870120FBE70000074B70B560
:1048A0000D467B4400F015F80446284600F024F835
:1048B00010B14FF0FF3070BD204670BD55DFFFFFD7
:1048C00000487047FC02002001694A1C0261087818
:1048D000704700B58FB0CDE9013100210591054940
:1048E0007944CDE9031011466846FFF7E7FE0FB0A3
:1048F00000BD0000E5FFFFFF007B00F08000704777
:1049000000487047FC0200207546FFF7F9FFAE46ED
:1049100005006946534620F00700854618B020B5CB
:10492000FFF74AFEBDE820404FF000064FF00007B9
:104930004FF000084FF0000B21F00701AC46ACE847
:10494000C009ACE8C009ACE8C009ACE8C0098D46B4
:1049500070470446AFF300802046FBF735FC490062
:1049600050EAC12018BF04204A0D18BF40F00100D2
:1049700040F2FF72B2EB515F08BF40F00200012825
:1049800008BF052070472DE9F0414F1E00EBC7011D
:104990000446D1E9000115461E4637F006020DD047
:1049A0002A46334600F052FE7F1E04EBC703D3E9CC
:1049B000002300F0B5FB37F00602F1D1022F25D01D
:1049C000042F13D0062F18BFBDE8F0812A463346C6
:1049D00000F03CFED4E90A2300F0A2FB2A4633464D
:1049E00000F034FED4E9082300F09AFB2A4633464F
:1049F00000F02CFED4E9062300F092FB2A46334651
:104A000000F024FED4E9042300F08AFB2A46334652
:104A100000F01CFED4E9022300F082FB2A46334654
:104A200000F014FED4E90023BDE8F04100F078BBAB
:104A3000024A0020110701F0E0BC000001FDFFFF69
:104A400030380A2801D2012070470020704700004A
:104A50002DE9F04D904F21F0004A86B005460C46F6
:104A6000BA4530DBAAEB070028430CD08B488245BF
:104A700001DC1CD1DDB106B02846BDE8F04D4FF099
:104A8000010201F0BABC864A864B284600F0DEFDE2
:104A900007460E46844A854B2846214600F0D6FD3F
:104AA00006B03A463346BDE8F04D00F039BB012070
:104AB000FFF794FE06B00022BDE8F04D1346104605
:104AC000114600F0E9BB7A48824542DABAF1795FD3
:104AD0000BDA2846FFF743FF042808BFFFF7A8FFBB
:104AE000284606B02146BDE8F08D2A460B46104602
:104AF00000F0ACFD834602466E480E460B4606218A
:104B00007844FFF740FF5A46334600F09FFD804649
:104B100069488A465A46334604217844FFF733FFF2
:104B20005A46334600F092FD00223B4600F0F8FA68
:104B300002460B464046514600F0AEFB2A4623464D
:104B400000F084FD06B02A462346BDE8F04D00F093
:104B5000E7BA284624F0004100223D463B4600F0DB
:104B6000A9FE4FF0FF3201F048FC064602465348CA
:104B70000F460B4606217844FFF705FF32463B46B9
:104B800000F064FDCDE900014D4832463B4604216A
:104B90007844FFF7F8FE32463B4600F057FD00220E
:104BA0002B4600F0BDFA834602913046394600F0AC
:104BB0005FFA804643480D46504517DCDDE90001A9
:104BC0005A46029B00F068FB42462B4600F03EFD31
:104BD00042462B4600F0A4FA012201F00EFC304AB6
:104BE000304B00F059FF304A304B4CE04FF0000A98
:104BF00052460B46404600F093FACDE90310524668
:104C00002B461046194600F021FD32463B4600F087
:104C100051FEDDE9033200F03FFB06460F46DDE9B9
:104C200000015A46029B00F037FB834600910122A7
:104C30003046394601F0E1FB194A1A4B00F03AFEC2
:104C400006460F4601224046294601F0D6FB5A4649
:104C5000009B00F0FBFC32463B4600F01DFF074680
:104C60000E4601225046294601F0C7FB0E4DDFF8E3
:104C700058802A46434600F01DFE3A46334600F06F
:104C800019FE2A46434600F015FE002CD8BF81F0DD
:104C9000004106B0BDE8F08D0000F03F0000F07F5D
:104CA000075C143326A6913C182D4454FB21F93F90
:104CB0000000E03F841900009A1900000E1900005E
:104CC000241900003333EF3FFB21E93F2DE9F84F72
:104CD00004460D4621F0004000917449814213DCE6
:104CE0007349884201DC08D13CB120462946BDE821
:104CF000F84F4FF0010201F080BB6E48002DCCBF91
:104D00006D496E49BDE8F88F6D49814211DD6D49ED
:104D10008142D8BF4FF0FF366DDD20462946FFF7B0
:104D20001EFE042808BFFFF783FE20462946BDE883
:104D3000F88F6549654F25F00045814233DD6449B0
:104D4000814219DD002632464FF080432046294635
:104D500000F0E6F980468A4601222046294601F005
:104D60004CFB00223B4600F097FE4246534600F0C3
:104D700093FA04460D463EE001260022BA463B4621
:104D80002046294600F0CCF980460F4600225346C3
:104D90002046294600F080FE42463B4600F07CFA61
:104DA00004460D4627E04B4981421BDDDFF8288190
:104DB0000226002243462046294600F047FC0022F6
:104DC0003B4600F0ADF907468A460022434620469E
:104DD000294600F061FE3A46534600F05DFA04466B
:104DE0000D4608E0032622462B4600203B4900F0F2
:104DF00053FA04460D4622462B461046194600F04B
:104E000025FC8B46824602460B4600F01FFC0746F7
:104E10000246334888460B4606217844FFF7B3FD27
:104E200052465B4600F012FC82462E488B463A46BC
:104E3000434605217844FFF7A6FD3A46434600F075
:104E400005FC02460B46002E504659460CDA00F08F
:104E500067F922462B4600F0F9FB01B022462B46AB
:104E6000BDE8F04F00F026BD00F05AF922462B466F
:104E700000F0ECFB1C4A7A4402EBC603D3E90023A2
:104E800000F00AFE22462B4600F006FE174A7A443E
:104E900002EBC603D3E9002300F00CFD009A002AC0
:104EA000B8BF81F00041BDE8F88F00000000104459
:104EB0000000F07F182D4454FB21F93FFB21F9BF7E
:104EC0000000DC3F0000203E0000F33F0000F03F08
:104ED0000000E63F008003400000F83F0000F0BF04
:104EE00022170000E01600007E16000046160000A3
:104EF0002DE9F04D9446CCF1000423F000464CEA35
:104F00000404524F46EAD4749A46884621F000427F
:104F1000BC4206D8454240EA050442EAD474BC4289
:104F200004D9BDE8F04D624600F0FAB8AAF1405548
:104F3000A5F17F6555EA0C040BD0022404EAAA749B
:104F4000434DDFF810E144EAD87452EA000B04D074
:104F50000CE0BDE8F04DFFF7B9BE002C14BF012CEA
:104F6000BDE8F08D022C30D0032C32D056EA0C0B69
:104F70000AD0BE4220D1BA4209D126F0804622F0A2
:104F800080423346114617E000291ADB25E0DFF89E
:104F9000C8B0FB44002C04BFDBE90001BDE8F08D84
:104FA000012C02BFDBE9000181F00041BDE8F08D7A
:104FB000022C0AD0032C0CD0BA4212D1B8F1000F47
:104FC0000BDA23482549BDE8F08D28462449BDE881
:104FD000F08D28467146BDE8F08D1D482149BDE899
:104FE000F08D921B12153C2AC4BF19481D490EDCD6
:104FF000BAF1000FBEBF12F13C0F0020014606DBE4
:10500000624600F049F921F00041FFF75FFE002CF5
:1050100008BFBDE8F08D012C04BF81F00041BDE860
:10502000F08D114A114B022C07D000F035FD2A46B5
:10503000BDE8F04D0A4B00F02FBD00F02DFD2A46D3
:10504000BDE8F04D064B00F035BC00000000F07FDD
:10505000182D4454FB2109C0DA150000FB21F9BFCB
:10506000FB210940FB21F93F075C143326A6A13C34
:105070002DE9F04106460F4600F028FC04000D46DD
:1050800018BF0120284320F00040C0F17F6000F1EC
:10509000E040C00F0ED0301C18BF0120384320F074
:1050A0000040C0F17F6000F1E040C00F04BF01206C
:1050B000FFF794FB20462946BDE8F08121F000422D
:1050C000A2F16052B2F5801F01F0004328BFD2F177
:1050D0007F6C0BD95FEA001C43EAC20242EB5070BE
:1050E00018BF704728BF20F001007047B2F5801F3D
:1050F000BCBF184670474FEA410C1CF5001F02D296
:10510000084601F092B870B500F04AFB0000008933
:10511000FFF7F6BF4FF00040A0F580007047000099
:1051200010B591EA030F48BF83F0004300F1BC843F
:10513000841A71EB030C05D2121943EB0C03001B0C
:1051400061EB0C01DFF824E14FEA1154A4EB135C8E
:105150001EEA430F18BF9EEA445F73D023EA0E0392
:10516000DCF1200E21EA045143F4801332D322FAF9
:105170000CFE10EB0E0023FA0CFE41EB0E01CCF1FD
:10518000200E03FA0EFE10EB0E0051F10001B1F5F6
:10519000801FCCF1200E32D201EB045112FA0EF234
:1051A000BDE8104058BF7047401C38BF5FEA42025C
:1051B00018BF7047002814BF20F0010041F1000122
:1051C0004FEA410313F5001F38BF7047A1F1C041FA
:1051D00000F034BB012A43EB0302ACF1200CDCF1FC
:1051E0001F0E32BF4FF0000E23FA0CF310EB03003A
:1051F00041EB0451B4EB115FD0D0A1EB045101F5A8
:10520000801149085FEA300001EB04510ED350F1E0
:10521000000038BF12FA0EFE08D1BDE81040C9E701
:10522000401C38BF5FEA4202CAD1C3E7BDE8104064
:105230004FEA410313F5001F38BF7047A1F1C04189
:1052400000F0FCBA9EEA445F08D011EA5E0FBDE8A8
:10525000104004BF01F0004100207047BDE810403D
:1052600070B500F09DFA00BF64FBBE3E0000E0FF99
:1052700002494FF0000001F08EB800BF0000F87F37
:10528000491058BFC1F140415B1058BFC3F14043C2
:105290008B42EFF3008070472DE9C04130B4DFF856
:1052A000A0C23CEA111418BF3CEA131400F0EC80D1
:1052B00081EA03051CEA111444EAD57418BF1CEAFC
:1052C000131500F0C780A4EB05044FF0004545EA34
:1052D000C12145EAC32341EA505143EA525304F144
:1052E0007F74994204F500344FEAC0204FEAC2228D
:1052F00008BF904200F09C804FEA13650FF2401601
:10530000765D4FEA134506FB05F7C7F1807706FB8C
:1053100007F74FEAD737A7FB03687642C8F580380E
:10532000A7FB06CE38BFA8F1010807FB08E64FF03F
:10533000000EA6FB028CE6FB03CEDCF1000CCEF1E6
:10534000004E38BFAEF1010EA6FB0C584FF000071F
:105350004FF00005E6FB0E87A1FB08C6A0FB07CEB9
:1053600016EB0E0645F10005E1FB076515F1E04E71
:105370007EBFA4F580345FEA46066D4116F18007D2
:1053800045F100054FEA17274FEA066647EA056729
:10539000A6F1DE46B6F1805F4FEA15251FD93846E3
:1053A00024F0010C05EBC471BCF1FE6F01EB0C1194
:1053B00002D8F0BCBDE8008124425CBF01F5801E2C
:1053C0009EEAC47F02D4F0BCBDE80081244238D4F8
:1053D000F0BCA1F1C041BDE8004100F02FBA4FEA96
:1053E000D22242EA43524FEAD323A7FB02864FEA76
:1053F000D02040EA415007FB03661EEA0E0F4FEA39
:10540000D12105FB026658BFA6EB0056B6EB00564D
:105410004FEA520E4EEAC37E18EB0E0E56EB530EB9
:10542000BDD518EB02085E417F1C55F10005B6E7BB
:105430004FF480154FF000074FF000064FF00008C2
:10544000ADE7F0BC4FF0000001F1C04101F00041B8
:10545000BDE8008111EA0C1F0CEA131500D00CE026
:1054600013EA0C1F00F025804FF00000F0BC81EA29
:10547000030101F00041BDE80081F0BC81EA0301B5
:10548000BDE8004100F0DAB9F0BCBDE8004170B5FC
:1054900000F086F9097EFC3E00F007B881EA0301BE
:1054A0004FF0000001F00041704781EA030100F075
:1054B000C5B9F0BC4FF000002249BDE8004170477B
:1054C000FFFDFBF9F7F5F4F2F0EEEDEBE9E8E6E4C9
:1054D000E3E1E0DEDDDBDAD8D7D5D4D3D1D0CFCD50
:1054E000CCCBCAC8C7C6C5C4C2C1C0BFBEBDBCBB89
:1054F000BAB9B8B7B6B5B4B3B2B1B0AFAEADACAB84
:10550000AAA9A8A8A7A6A5A4A3A3A2A1A09F9F9E5D
:105510009D9C9C9B9A99999897979695959493930F
:10552000929191908F8F8E8E8D8C8C8B8B8A8989A6
:105530008888878786858584848383828281818029
:105540000000FF070000F87F4FEA41034FEA535382
:10555000A3F58063D3F11E03C8BFD3F1210C0CDD8A
:105560004FF0004242EAC12242EA505232FA03FCB2
:105570008CEAE17CACEBE1707047102BC4BF0020DB
:10558000704703F5787CBCF1FF3F04D06FF0004218
:1055900082EA2100704770B500F002F94992248038
:1055A00000207047F2E710F0004248BF4042B0FAD6
:1055B00080F310FA03F10AD0C3F11D0303F58063F1
:1055C0004FEA415002EB035202EBD12170474FF0FA
:1055D0000000704751EA030C17D41CF5801F58BF18
:1055E000BCF5801F00F10680994218BF704708BFC4
:1055F0009042704707D711F5801F58BF13F5801FE1
:1056000019D499427047894270471CF5801F08D50C
:10561000BCF5801FF7D58B4218BF704708BF824288
:1056200070474FF4001C1CEB410F38BF1CEB430FBD
:1056300001D28B42704770B500F0B2F89224490055
:105640004FF000514FF08053FFF71ABEDFF848C10A
:1056500070B51CEA111E1EBF1CEA13159EEA0C0F42
:1056600095EA0C0F00F06F8081EA030423EA4C13E3
:105670004EEAD47E21EA4C1141F4801143F48013A8
:10568000AE44A1FB024CA0FB0365AEF17F7E361950
:1056900055EB0C05A1FB034C4CF10003A0FB021CD5
:1056A00016EB0C06654153F10003094218BF46F0A2
:1056B000010613F4007F0BD14FEA03314FEA0530A6
:1056C000340341EA155140EA16506FF003020AE034
:1056D0004FEAC3214FEAC520F40241EA555140EA9E
:1056E00056506FF0020202EB2E4201EB025585EAA2
:1056F000CE710AD05FEA440C18BF24F0004450F188
:10570000000041F1000120EAD47040F2FE7C6245C5
:1057100000D270BDA84214BF4FF080444FF0404407
:10572000002E08BF0024BEF1806FA8BFA1F1C041C8
:10573000BDE8704080F282804FF0000001F1C0416E
:1057400001F0004170479EEA0C0F0CEA131518BFD8
:1057500095EA0C0F06D04FF0000081EA030E0EF020
:10576000004170BD00F01CF88900013E00F007B850
:1057700000F009B84FEA430C5FEA5C5C08D081EAAC
:10578000030100F05BB84FEA410C5FEA5C5CF6D1C4
:105790004FF00000014970470000FF070000F87F4C
:1057A0000EF1020E2EF0030E5EF8046B364205D4A5
:1057B000012A43EB030515F5001F12D8012841EB20
:1057C000010C1CF5001F0CD80ED14FEAD17C15F549
:1057D000001F0CEB4C0C0CF1020C08BF4CEBD37C03
:1057E00004E04FF0080C01E04FEAD37C0CEB4C05D1
:1057F00026FA05F606F00706B6F1040C06D20EEB03
:10580000860CBDE870404CF0010C6047DFE80CF0FE
:10581000090B02024FF000414FF00000A1F50021FA
:1058200070BD19461046012851EB010418BFD4F58C
:10583000001484BF002001F0004170BD0808A0F5ED
:1058400000114FEA3101704753EA010C17D41CF5DF
:10585000801F58BFBCF5801F00F106808B4218BF27
:10586000704708BF8242704707D713F5801F58BFA3
:1058700011F5801F19D48B4270479B4270471CF56D
:10588000801F08D5BCF5801FF7D5994218BF704717
:1058900008BF904270474FF4001C1CEB430F38BF09
:1058A0001CEB410F01D2994270470FB40CBC03BCF2
:1058B000FFF7C1BE91EA030F10B581F000413FF53B
:1058C00037AC83F0004300F0EFB800002DE9F04161
:1058D00001F5801CBCF5001FC0F2C3804FEA115CCB
:1058E00021EA0C510CF1FD0C41F480115FEA5C0CD3
:1058F0000CF5C07C01D3400049413DA4890241EA36
:10590000905187028E0E0A0CA45D04FB04F602FB84
:1059100006F6C6F14046A4FB0662F60D46EA4226AC
:1059200006FB06F4A4FB01235242C3F1404338BFF7
:105930005B1EA6FB02420024E6FB0324D20B42EAD4
:105940004446A6FB0623A1FB02E2A3FB07E4A4183E
:105950004FF0000252F10002E3FB01426442C2F147
:10596000404E38BFAEF1010EA6FB04234FF00002FB
:10597000E6FB0E32A2FB03464FF00004B61954F1C9
:105980000004E2FB0264A1FB06E6A4FB07E816EBB9
:1059900008064FF0000858F10008E4FB0168764261
:1059A000C8F1405838BFA8F10108A2FB06E4A3FBE8
:1059B00008E52D194FF0000454F10004E2FB0854EF
:1059C000A1FB05E6A7FB04E818EB06084FF000066C
:1059D00056F10006E1FB048618F1200556F1000699
:1059E000A809A8F11B08B10908F03F08B8F10A0F8F
:1059F00040EA86601CD901EB0C51BDE8F08100BF84
:105A0000FCF5EEE8E2DDD8D3CFCBC7C3C0BDB9B655
:105A1000B4B1AEACA9A7A5A3A19F9D9B9A9896955A
:105A20009392908F8D8C8B898887868584838281E1
:105A3000A0FB006800FB01F208EB4208B8EB8728E6
:105A400007D5341858EB0104D5D5401C51F100019D
:105A5000D1E7341A78EB0104CDD4401E71F1000176
:105A6000C9E75FEA4C0C5FEA9C5C0DD105D34FF0AF
:105A7000000001F00041BDE8F081BDE8F04170B5E3
:105A8000FFF78EFE6DDBFFBEBDE8F0414FF000007A
:105A9000004970470000F87F10B591EA030F48BF36
:105AA00083F000433FF544AB841A71EB030C07D23B
:105AB00012198CF0004C43EB0C03001B61EB0C0142
:105AC000DFF8A4E14FEA1154A4EB135C1EEA430F84
:105AD00018BF9EEA445F00F0B08023EA6E03524292
