:020000040800F2
:100000006009002009450008292500082B25000863
:100010002F250008332500083725000800000000C0
:100020000000000000000000000000003B25000868
:100030003D250008000000003F250008412500087C
:1000400023450008234500082345000823450008F0
:1000500023450008234500082345000823450008E0
:1000600023450008234500082345000823450008D0
:1000700023450008234500082345000823450008C0
:1000800023450008234500082345000823450008B0
:1000900023450008234500082345000823450008A0
:1000A0002345000823450008234500082345000890
:1000B0002345000823450008234500082345000880
:1000C0002345000823450008234500082345000870
:1000D000234500088528000823450008234500081B
:1000E0002345000823450008234500082345000850
:1000F0002345000823450008234500082345000840
:100100002345000823450008650200082345000830
:10011000234500082345000823450008234500081F
:10012000234500082345000823450008234500080F
:1001300000F002F800F041F80AA090E8000C8244B8
:100140008344AAF10107DA4501D100F036F8AFF295
:10015000090EBAE80F0013F0010F18BFFB1A43F0A5
:1001600001031847B4630000D4630000103A24BFB1
:1001700078C878C1FAD8520724BF30C830C144BF0C
:1001800004680C607047000000230024002500264E
:10019000103A28BF78C1FBD8520728BF30C148BFEA
:1001A0000B607047642904F00782002070471FB578
:1001B00006F003F81FBD10B510BD04F061FB114639
:1001C000FFF7F5FF02F0D4F804F07FFB03B4FFF76C
:1001D000F2FF03BC02F0FCFA10B56B4800F0A2F984
:1001E0006A4800F04AF96A480078401C684908707B
:1001F0000846007805280BD10020087001206549C9
:100200000860654802F024F800206449C1F8A8019C
:1002100010BD7FB505460C460121082003F02FF8DC
:10022000ADF80850ADF804400020ADF80A00ADF874
:10023000060001A95A4803F051F901221146584815
:1002400003F0A1FC32208DF8000001208DF80100A0
:1002500000208DF8020001208DF80300684602F0AE
:100260005CFB7FBD2DE9F04F87B001214C4803F0C6
:1002700024FF00285FD00121494803F02FFF01200F
:10028000484908604848007800F101004649087074
:10029000FFF7A2FF00F023FE3F49B1F9040005F08B
:1002A00079FE04463C49B1F9020005F073FE0546AB
:1002B0003949B1F9000005F06DFE06463B49B1F938
:1002C000040005F067FE07463849B1F9020005F061
:1002D00061FE80463549B1F9000005F05BFE8146BC
:1002E0003349B1F9040005F055FE82463049B1F9B1
:1002F000020005F04FFE83462D49B1F9000005F0DC
:1003000049FE4B4652465946CDE90087CDE9026584
:100310000494069000F0BFFE00F083FD22480078B0
:10032000282805D101202349087000201E490870A3
:1003300000201C49086007B0BDE8F08F10B54FF4ED
:10034000A06002F0E5FA10BD10B5FFF7F7FF4FF41B
:10035000164002F04BFA02F0D9F900F02DF800F047
:1003600008F900F045F800F0A1F80A2002F005FABB
:1003700001F062FF0A2002F000FA41F61F411D2041
:10038000FFF747FF10BD00002E00002016000020E0
:1003900002000020A8812142B800002000802142F4
:1003A000000C0040AC812142000000201000002021
:1003B000280000200100002008B50121102002F0D3
:1003C00051FF4FF40050ADF8000010208DF80300ED
:1003D00003208DF802006946044802F08FFC4FF4B8
:1003E0000051024802F035FD08BD00000010014038
:1003F0001CB52CA103C9CDE900019DF800203121D5
:10040000A62000F0D9F9012002F0B7F99DF80120EB
:100410002C21A62000F0D0F9012002F0AEF99DF8C1
:1004200002202D21A62000F0C7F9012002F0A5F935
:100430009DF803202E21A62000F0BEF9012002F035
:100440009CF99DF804201E21A62000F0B5F901209A
:1004500002F093F99DF805201F21A62000F0ACF9C9
:10046000012002F08AF99DF806202021A62000F044
:10047000A3F9012002F081F91CBD1CB50446062336
:100480006A463221A62000F001FA012808D1BDF801
:1004900000002080BDF802006080BDF80400A0804C
:1004A0001CBD0000090C0880FCFF09001CB527A139
:1004B00003C9CDE900019DF800202021D22000F0E1
:1004C0007BF9012002F059F99DF801202121D22069
:1004D00000F072F9012002F050F99DF8022022216B
:1004E000D22000F069F9012002F047F99DF80320BD
:1004F0002321D22000F060F9012002F03EF99DF89E
:1005000004202421D22000F057F9012002F035F90F
:100510009DF805202521D22000F04EF9012002F09F
:100520002CF91CBD1CB5044606236A46A821D2201E
:1005300000F0ACF9012808D1BDF800002080BDF81A
:1005400002006080BDF80400A0801CBD8F00081070
:1005500000000000002107E04FF4FA5100BF0A003C
:10056000A1F1010399B2FAD10200A0F10100F3D187
:10057000704738B50121092002F074FEE248446852
:1005800024F0E06444F0007444600121082002F08B
:1005900069FEC020ADF8000003208DF80200142091
:1005A0008DF803006946D94802F0A8FBC021D7485E
:1005B00002F04FFC4FF44060ADF8000010208DF8C1
:1005C00003006946D14802F099FB4FF44061CF48DF
:1005D00002F03FFC38BD10B58020CC4910310860D6
:1005E0004020086004F07CF9C8480830006810F02A
:1005F000800F01D1002010BD8020C4491431086053
:1006000004F06EF9C1480830006810F0800F01D086
:100610000020F0E78020BD491431086004F060F943
:100620000120E8E710B54020B8491431086004F013
:1006300057F98020B5491431086004F051F9402081
:10064000B2491031086004F04BF98020AF491031F5
:10065000086004F045F910BD10B54020AB491431D5
:10066000086004F03DF98020A8491431086004F0C6
:1006700037F94020A5491031086004F031F94020D5
:10068000A2491431086004F02BF910BD10B54020C8
:100690009E491431086004F023F980209B491031F1
:1006A000086004F01DF9402098491031086004F0FA
:1006B00017F9402095491431086004F011F910BD74
:1006C00010B5402091491431086004F009F98020E8
:1006D0008E491031086004F003F940208B49103135
:1006E000086004F0FDF889480830006810F0800FB9
:1006F00007D0402085491431086004F0F1F800204B
:1007000010BD402081491431086004F0E9F801204F
:10071000F6E770B5044608251BE040207B491431FC
:10072000086004F0DDF814F0800F04D080207749D1
:100730001031086003E080207449143108606006BD
:10074000040E04F0CDF8402070491031086004F028
:10075000C7F82800A5F10101CDB2DED140206B49D8
:100760001431086070BD70B50825002480206749E9
:100770001031086015E06006040E40206349143112
:10078000086004F0ADF8402060491031086004F0C2
:10079000A7F85E480830006810F0800F01D044F0E0
:1007A00001042800A5F10101CDB2E4D14020574950
:1007B00014310860204670BD70B506460C461546DB
:1007C000FFF709FF08B9002070BD3046FFF7A1FF11
:1007D000FFF776FF18B9FFF725FF0020F4E7204662
:1007E000FFF797FFFFF76CFF2846FFF792FFFFF731
:1007F00067FFFFF717FF0120E6E770B506460C46D6
:100800001546FFF7E8FE08B9002070BD3046FFF737
:1008100080FFFFF755FF18B9FFF704FF0020F4E74A
:100820002046FFF776FFFFF74BFF2846FFF771FFE3
:10083000FFF746FFFFF7F6FE0120E6E770B5044636
:100840000D46FFF7C8FE08B9002070BD2046FFF72F
:1008500060FFFFF735FF18B9FFF7E4FE0020F4E76B
:100860002846FFF756FFFFF72BFFFFF7B4FE601C8B
:10087000C0B2FFF74EFFFFF723FFFFF774FF0646F6
:10088000FFF704FFFFF7CEFE3046DEE72DE9F0412B
:1008900080460F4614461D46012D02DA0020BDE8B1
:1008A000F081FFF798FE08B90020F8E74046FFF70F
:1008B00030FFFFF705FF18B9FFF7B4FE0020EEE7A1
:1008C0003846FFF726FFFFF7FBFEFFF784FE08F12F
:1008D0000100C0B2FFF71DFFFFF7F2FE012607E09F
:1008E000FFF741FF04F8010BFFF7B6FE701CC6B21C
:1008F000AE42F5DBFFF737FF04F8010BFFF7C6FE4A
:10090000FFF790FE0120CAE700000140000C014003
:100910002DE9F041002700240025002600BF10E04B
:10092000FE48FFF7FFFDFD48B0F900000444FB4816
:10093000B0F902000544F948B0F904000644781CF7
:10094000C7B2282FECDB282094FBF0F000B2F4496A
:100950000880282095FBF0F000B24880282096FB04
:10096000F0F000B28880BDE8F0812DE9F047044640
:100970004FF07C51204605F059FB814625462E4616
:10098000E848A0EB660635462946484605F04EFB8A
:100990008246294605F04AFB80464FF07F5105F01C
:1009A00049FC0746294605F041FB05462846BDE8B7
:1009B000F0872DE9F0478046404605F0EBFA824685
:1009C00005F01CF90646D84AD84B04F007FE044649
:1009D00004F03CFB81464846BDE8F08770B504460C
:1009E000204605F0D7FA0646D14905F01FFB05461B
:1009F000284670BD2DE9F0478046404605F0CAFA0A
:100A0000824605F0FBF806464FF03332C94B04F03E
:100A1000E5FD044604F01AFB81464846BDE8F08730
:100A20002DE9FE4F8246894690469B4609FB09F117
:100A300008FB081005F0AEFA0446FFF796FF029097
:100A4000504605F0A7FA0090029905F0EFFA0190E0
:100A500005F0D4F80446B84AB84B04F0BFFD06468A
:100A600004F0F4FA0C9908600AFB0AF108FB08107C
:100A700005F090FA0446FFF778FF0290484605F02B
:100A800089FA0090029905F0D1FA019005F0B6F8C4
:100A90000446A94AA94B04F0A1FD064604F0D6FA83
:100AA000CBF80000BDE8FE8F2DE9F04F87B005467A
:100AB0000C46A3480168284605F0C6FB8246A148BB
:100AC0004168A14805F0C0FB83469E4881685846AE
:100AD00005F0BAFB03909B48C06880F0004004908A
:100AE0009848C06880F00040059098480690984962
:100AF000504605F09BFA834696480168584605F033
:100B0000A9F8944908609249039805F08FFA834642
:100B10008C480168584605F09DF88A4908608C4960
:100B2000049805F083FA834686484168584605F0E4
:100B300091F8844948608649059805F077FA83461C
:100B400080488168584605F085F87E49886080496C
:100B5000069805F06BFA83467A48C168584605F056
:100B600079F87849C8607B480168204605F06CFB3D
:100B7000029074480168784805F06CF8019071495A
:100B80000868019905F0D4F880466E498868019993
:100B900005F0CEF881466B48066847683146404606
:100BA00005F044FA834667480168584605F042FB61
:100BB000644908603946404605F038FA8346614882
:100BC0004168584605F036FB5E4948603146484664
:100BD00005F02CFA83465B488168584605F02AFBED
:100BE000584988603946484605F020FA83465548FA
:100BF000C168584605F01EFB5249C860404602993C
:100C000005F014FA834653480168584605F022F867
:100C1000504908604846029905F008FA834648485A
:100C20000168584605F016F84549086049480068CB
:100C300007B0BDE8F08F2DE9FC5F80460C461546F5
:100C40001E460E9F4548464B00903046DDE90C128B
:100C5000FFF7E6FE3149B1F9000005F09BF9834644
:100C60003E480168584605F0E5FA82463D4905F0E0
:100C7000DDF981463B4905F0D9F93B4908603B491C
:100C80003948006805F0D2F981463948016848467C
:100C900004F0E0FF364908602046FFF78AFE1F494E
:100CA0000190B1F9000005F075F900902B4801683A
:100CB000009805F0BFFA83462E4905F0B7F9824641
:100CC0002B480168504604F0C5FF8146019904F0A5
:100CD000C1FF2949086025492748006805F0A6F9A1
:100CE000814626480168484604F0B4FF234908605D
:100CF0000A49B1F9020005F04DF983461848016828
:100D0000584605F097FA8246164905F08FF9814654
:100D1000144905F08BF91A49086033E02E000020D1
:100D200034000020DF59375FEC51B81E85EB913F4E
:100D30007321A03A33330D40CB67791EDCA54C40BC
:100D40007C0000208000002017B7D13852499D391F
:100D5000A69BC43A78000020D7A3303FAC00002007
:100D6000A80000206666E63E90000020A69B443B5B
:100D7000940000206666663F98000020F400002082
:100D80009C000020FD49FE48006805F04FF98146AF
:100D9000FC480168484604F05DFFFA490860404697
:100DA000FFF707FEF8490190B1F9020005F0F2F8EB
:100DB0000090F6480168009805F03CFA8346F44933
:100DC00005F034F98246EF480168504604F042FFCE
:100DD0008146019904F03EFFEE490860E749ED487D
:100DE000006805F023F98146EB484168484604F065
:100DF00031FFE949486017F1050F10DB052F0EDCC4
:100E00002846FFF7D6FD8246DC4905F00FF98146FA
:100E1000E1488168484604F01DFFDF498860BDE86D
:100E2000FC9F2DE9F84FDD48DD4B0090B3F904201D
:100E3000B3F90210B3F90000DA4BFFF7F1FDD24924
:100E4000B1F9000004F077FB8046D74AD74B04F095
:100E5000C5FB06460F46D648006804F0CFFE824622
:100E600032463B4604F024F9044604F0EFF8D0493A
:100E70000860C549B1F9020004F05DFB0646CA4AA4
:100E8000CA4B04F0ABFB80468946CA48006804F0B0
:100E9000B5FE824642464B4604F00AF9044604F089
:100EA000D5F8C4490860B849B1F9040004F043FB1F
:100EB0008046BD4ABD4B04F091FB04460D46BE483A
:100EC000006804F09BFE064622462B4604F0F0F82C
:100ED000824604F0BBF8B8490860BDE8F88F2DE9F8
:100EE000F04F87B00027B846B946AD480088B349EF
:100EF000B34A127821F81200A9484088B149B04A93
:100F0000127821F81200A6488188AF48AC4A1278BE
:100F100020F8121000260DE0A84830F9160007440A
:100F2000A84830F916008044A74830F916008144DB
:100F3000701CC6B2282EEFDB282097FBF0F00F3094
:100F400000B2A2490880282098FBF0F0401D00B2B2
:100F50004880282099FBF0F000B2888098480078FB
:100F6000401C9749087008460078282801D10020C5
:100F700008708549B1F9000004F0DDFA0446944A8E
:100F8000944B04F02BFB944A944BCDE9000104F000
:100F900025FBCDE904019249B1F9000004F0CBFA38
:100FA000CDE90201DDE9042304F082F8824604F071
:100FB00093FA00B28A4908807349B1F9020004F03B
:100FC000BAFA834A834BCDE9000104F007FB0446DB
:100FD000814A824B04F002FBCDE904018049B1F95A
:100FE000020004F0A8FACDE90201DDE9042304F0CF
:100FF0005FF8824604F070FA00B27949488062498D
:10100000B1F9040004F097FA8246714A714B04F07A
:10101000E5FA714A714BCDE9000104F0DFFACDE940
:1010200002016F49B1F9040004F085FA0446DDE9D4
:10103000022304F03DF8CDE9040104F04DFA00B2BA
:1010400067498880B1F9000004F0A4FF04466549AF
:1010500005F0BFF802D20020614908806049B1F96B
:10106000020004F097FF04465E4905F0B2F802D290
:1010700000205B4948805A49B1F9040004F08AFF16
:101080000446584905F0A5F802D20020544988804A
:1010900007B0BDE8F08F0FB5A5B0534801680068F0
:1010A00004F0C4FF1B90514801684F48006804F0E9
:1010B000BDFF1A904E4801684B48006804F0B6FF27
:1010C00019904A480168006804F0B0FF1890494838
:1010D00001684648006804F0A9FF17904448016879
:1010E000006804F0A3FF1690424801684048006879
:1010F00004F09CFF15903F480168006804F096FFDB
:1011000014902A99289804F091FF12902B9904F0DA
:101110008DFF0021139004F0CDFE01D129B000BD58
:101120002B99084604F082FF0E902A99084604F095
:101130007DFF0C902899084604F078FF0B900C99DD
:1011400004F088FD0D900E9904F084FD0F9004F0DA
:1011500055FDCDE9100103F053FFCDE9120103F075
:1011600075FF24902499289804F0E2FD2890249992
:101170002A9804F0DDFD2A9024993DE0A69B443B8B
:101180009C000020A00000202E000020A8000020CD
:101190006666663FA4000020F4000020480000209E
:1011A000160000204C000020BC79AA436E860B3F3D
:1011B00050000020540000205800002000010020B2
:1011C000B000002050010020A001002010000020ED
:1011D000EC51B81E85EB913FFA7E6ABC7493683F70
:1011E00028000020DB0FC9405C00002060000020C8
:1011F00064000020680000202B9804F099FD2B90DB
:101200001999179805F020F84FF08041139004F0D9
:101210000DFF239015991A9804F01CFD4FF08041A2
:10122000139004F003FF229018991B9805F00CF816
:101230001290169905F008F81390149904F00AFD1D
:10124000219022992B9804F0F1FE139021992A986D
:1012500004F0ECFE1290139904F0F6FF209021990F
:10126000289804F0E3FE139023992B9804F0DEFEF7
:101270001290139904F0E8FF1F9023992A9804F024
:10128000D5FE13902299289804F0D0FE129013995D
:1012900004F0DAFF1E90FE49209804F0C7FE139078
:1012A000FC480168139804F0D5FCFA490860F84935
:1012B0001F9804F0BBFE1390F7480168139804F0E0
:1012C000C9FCF5490860F2491E9804F0AFFE13907E
:1012D000F2480168139804F0BDFCF0490860F0483A
:1012E000209904F0A3FE1290259904F0B3FC13900A
:1012F000E8480168139804F0ADFC2590E8481F9970
:1013000004F094FE1290269904F0A4FC1390E24895
:101310000168139804F09EFC2690E1481E9904F0A1
:1013200085FE1290279904F095FC1390DB48016824
:10133000139804F08FFC2790DA482799006804F08E
:1013400075FE1190D8482699006804F06FFE0F9042
:10135000D648006880F000400D90259904F066FEA4
:101360000E900F9904F070FF1090119904F06CFF2B
:10137000CF49129004F05AFE1390CE48016813989A
:1013800004F068FCCB490860C6482699006804F060
:101390004DFE1190C4482799006804F047FE0F9055
:1013A000C4480168259804F041FE0E900F9904F09E
:1013B00051FC1090119904F047FFBD49129004F0C0
:1013C00035FE1390B9480168139804F043FCB749FF
:1013D0000860B4480168259804F028FE1190B348CD
:1013E0002799006804F022FE0F90B2482699006801
:1013F00004F01CFE0E900F9904F026FF1090119936
:1014000004F028FCAA49129004F010FE1390A6489C
:101410000168139804F01EFCA3490860084601689F
:10142000259804F003FE1190A0482699006804F066
:10143000FDFD0F909F482799006804F0F7FD0E907E
:101440000F9904F007FC1090119904F0FDFE9849E3
:10145000129004F0EBFD139092480168139804F089
:10146000F9FB9049086008460168006804F0DEFD59
:101470000E908D480168006804F0D8FD0C908B48F0
:101480000168006804F0D2FD0A908A48016800688B
:1014900004F0CCFD09900A9904F0DCFB0B900C9948
:1014A00004F0D8FB0D900E9904F0D4FB0F9004F0DB
:1014B000A5FBCDE9100103F0A3FDCDE9120103F076
:1014C000C5FD24907B482499006804F031FC7949DB
:1014D000086076482499006804F02AFC7349086083
:1014E00071482499006804F023FC6F4908606D4836
:1014F0002499006804F01CFC6A4908602E9908468B
:1015000004F094FD0E902D99084604F08FFD0C9088
:101510002C99084604F08AFD0B900C9904F09AFB74
:101520000D900E9904F096FB0F9004F067FBCDE947
:10153000100103F065FDCDE9120103F087FD249051
:1015400024992C9804F0F4FB2C9024992D9804F005
:10155000EFFB2D9024992E9804F0EAFB2E9055482D
:1015600001684FF0804004F061FD0A904E48016828
:101570000A9804F05BFD0C904C4801684FF0404025
:1015800004F054FD0A90474801680A9804F04EFDA3
:101590000B900C9904F05EFB0D9004F02FFBCDE94D
:1015A0000E0103F01DFA4FF06632434BCDE91001F6
:1015B00004F014F8CDE9120103F048FD3F4908603A
:1015C000394801684FF0804004F030FD07903648FC
:1015D0000168079804F02AFD0990344801684FF02B
:1015E000404004F023FD079030480168079804F05C
:1015F0001DFD0890099904F027FE4FF07E510A90D6
:1016000004F028FB0B9004F0F9FACDE90E0129480B
:1016100001684FF0804004F009FD089023480168FC
:10162000089804F003FD0A901F4801684FF08040BD
:1016300004F0FCFC08901B480168089804F0F6FCD4
:1016400009900A9904F006FB0B9004F0D7FACDE953
:101650000C01DDE90E2303F013FC4FF06632164B4C
:10166000CDE9100103F0BAFFCDE9120103F0EEFC61
:10167000124948601248007800287DD12E9804F065
:10168000BDFACDE906011A99159804F0E3FA19E0BC
:101690008FC2753C6C000020700000207400002098
:1016A000000020416800002064000020600000204D
:1016B000A69BC43A5C00002066A64C40F4000020C3
:1016C00002000020019004F099FA00224FF08043BC
:1016D000CDE9020103F082FFCDE90401DDE9062333
:1016E00003F07CFFCDE90A0118991B9804F0ACFDCA
:1016F0000490169904F0A8FD0590149904F0AAFA34
:1017000006902D9904F092FC079004F077FACDE949
:101710000801DDE90A2304F087F9CDE90E011899E3
:101720001B9804F091FD0490169904F08DFD05902E
:10173000149904F08FFA06902C9904F077FC079026
:1017400004F05CFACDE90A012E9804F057FACDE9CD
:1017500006011999179804F077FD019004F04EFAEC
:1017600000224FF08043CDE9020103F037FFCDE9BD
:101770000401DDE9062300E0D5E003F02FFFCDE909
:101780000801DDE90A2304F04FF9CDE90C01DDE998
:101790000E2303F075FB4FF0C042644BCDE91001FE
:1017A00003F086FC624A634BCDE9120103F080FC32
:1017B000CDE91C0100221346DDE91C0103F0D2FE35
:1017C00008D24FF0C0425C4BDDE91C0103F070FC15
:1017D000CDE91C014FF0C042574BDDE91C0103F07D
:1017E000FBFF08D24FF0C042534BDDE91C0104F06F
:1017F0001BF9CDE91C0151480CC8DDE91C0104F0BE
:1018000013F921F000414FF0C0424D4BCDE91201D8
:1018100003F0A8FE22D249480CC8DDE91C0104F0FF
:1018200003F9484A484BCDE90C0103F0D7FECDE956
:1018300010014648279904F0F9FB0D9004F0DEF9F9
:10184000CDE90E01DDE9102303F032FCCDE91201F0
:10185000DDE91C2303F02CFCCDE91C0137480CC842
:10186000DDE91C0104F0E0F821F000414FF0C04236
:10187000334BCDE9120103F0AFFF22D82F480CC83B
:10188000DDE91C0104F0D0F82E4A2F4BCDE90C0104
:1018900003F0A4FECDE910012C48279904F0C6FB03
:1018A0000D9004F0ABF9CDE90E01DDE9102304F051
:1018B000BBF8CDE91201DDE91C2303F0F9FBCDE90A
:1018C0001C0100221346DDE91C0103F04BFE08D287
:1018D0004FF0C042184BDDE91C0103F0E9FBCDE9F4
:1018E0001C014FF0C042144BDDE91C0103F074FFF2
:1018F00008D24FF0C042104BDDE91C0104F094F80F
:10190000CDE91C010D4ADDE91C0103C24FF066322E
:101910000F4BDDE91C0103F061FECDE9120103F07C
:1019200095FB0C49886000BFFFF7F8BBFB21F93F2E
:101930009A7CB3CD8DE9A93FFB21194040000020DE
:10194000FB210940B81E85EB51B88E3F000080BFD7
:1019500066A64C40F400002070B506460C461546BD
:1019600006F57A605A21B0FBF1F02030FE4908708C
:1019700006F57A605A21B0FBF1F201FB120020302B
:10198000F949487004F57A605A21B0FBF1F0203033
:10199000F549887004F57A605A21B0FBF1F201FB39
:1019A00012002030F049C87005F57A605A21B0FB6A
:1019B000F1F02030EC49087105F57A605A21B0FB4E
:1019C000F1F201FB12002030E74948710621E64898
:1019D00000F00DFC70BD2DE9F05F05460E46174680
:1019E0009846DDE90BABDDF82890B124A520DE494F
:1019F00008705A20487010208870A120C870002DEF
:101A000002DAC5F5004005B2280AD8490870084630
:101A10000078D5490871D54800780444D3490D7041
:101A200008460078D0494871D04800780444002E18
:101A300002DAC6F5004006B2300ACC490870084602
:101A40000078C9498871C94800780444C7490E70B4
:101A500008460078C449C871C44800780444002F7F
:101A600002DAC7F5004007B2380AC04908700846D4
:101A70000078BD490872BD4800780444BB490F7026
:101A800008460078B8494872B84800780444B8F16C
:101A9000000F03DAC8F500400FFA80F84FEA18206B
:101AA000B249087008460078AF498872AF4800789C
:101AB0000444AE4981F8008008460078AA49C872FB
:101AC000AA4800780444B9F1000F03DAC9F50040D0
:101AD0000FFA80F94FEA1920A449087008460078E7
:101AE000A1490873A14800780444A04981F80090F6
:101AF000084600789C4948739C4800780444BAF131
:101B0000000F03DACAF500400FFA80FA4FEA1A20F4
:101B1000964908700846007893498873934800787E
:101B20000444924981F800A0084600788E49C873A1
:101B30008E48007804440C74AA20487412218A4804
:101B400000F055FBBDE8F09F2DE9F05F05460E461D
:101B500017469846DDE90BABDDF82890B124A521A6
:101B6000834802F00BFC5A21814802F007FC102147
:101B70007F4802F003FCA1217D4802F0FFFB002D0D
:101B800002DAC5F5004005B2280A7A49087008460D
:101B90000178774802F0F2FB7648007804447549F2
:101BA0000D7008460178724802F0E8FB7148007831
:101BB0000444002E02DAC6F5004006B2300A6D4930
:101BC0000870084601786A4802F0D8FB6948007836
:101BD000044468490E7008460178654802F0CEFB5F
:101BE000644800780444002F02DAC7F5004007B2C9
:101BF000380A60490870084601785D4802F0BEFB6B
:101C00005C48007804445B490F70084601785848E6
:101C100002F0B4FB574800780444B8F1000F03DA2F
:101C2000C8F500400FFA80F84FEA182051490870B3
:101C3000084601784E4802F0A1FB4E480078044463
:101C40004C4981F8008008460178494802F096FB2B
:101C5000484800780444B9F1000F03DAC9F50040A0
:101C60000FFA80F94FEA19204249087008460178B6
:101C70003F4802F083FB3F48007804443D4981F827
:101C80000090084601783A4802F078FB394800781D
:101C90000444BAF1000F03DACAF500400FFA80FAE3
:101CA0004FEA1A203349087008460178304802F09C
:101CB00065FB3048007804442E4981F800A00846AE
:101CC00001782B4802F05AFB2A4800780444E1B21C
:101CD000274802F053FBAA21254802F04FFBBDE83C
:101CE000F09F2DE9F05F05460E4617469846DDE960
:101CF0000BABDDF82890B824A5211D4802F03EFB6F
:101D00005A211B4802F03AFB1621194802F036FB13
:101D1000A221174802F032FB002D02DAC5F500407F
:101D200005B2280A1449087008460178104802F0E4
:101D300025FB1148007804440F490D7008460178CE
:101D40000B4802F01BFB0C4800780444002E02DA1A
:101D5000C6F5004006B2300A074908700846017807
:101D6000034802F00BFB09E0F0010020B100002065
:101D700000380140B2000020B3000020FA4800788B
:101D80000444F9490E7008460178F84802F0F6FA62
:101D9000F54800780444002F02DAC7F5004007B286
:101DA000380AF149087008460178F04802F0E6FA6E
:101DB000ED4800780444EC490F7008460178EB4880
:101DC00002F0DCFAE84800780444B8F1000F03DAC6
:101DD000C8F500400FFA80F84FEA1820E249087071
:101DE00008460178E14802F0C9FADF480078044467
:101DF000DD4981F8008008460178DC4802F0BEFA2F
:101E0000D94800780444B9F1000F03DAC9F500405D
:101E10000FFA80F94FEA1920D34908700846017873
:101E2000D24802F0ABFAD04800780444CE4981F899
:101E3000009008460178CD4802F0A0FACA48007820
:101E40000444BAF1000F03DACAF500400FFA80FA31
:101E50004FEA1A20C449087008460178C34802F0C6
:101E60008DFAC14800780444BF4981F800A00846B3
:101E70000178BE4802F082FABB4800780444BBF106
:101E8000000F03DACBF500400FFA80FB4FEA1B206E
:101E9000B549087008460178B44802F06FFAB248B4
:101EA00000780444B04981F800B008460178AF4892
:101EB00002F064FAAC48007804440D98002804DA73
:101EC0000D98C0F5004000B20D900D98000AA6498B
:101ED000087008460178A54802F050FAA248007838
:101EE0000444A1490D980870084601789F4802F003
:101EF00045FA9D48007804440E98002804DA0E98AC
:101F0000C0F5004000B20E900E98000A9649087085
:101F100008460178954802F031FA93480078044465
:101F200091490E98087008460178904802F026FA08
:101F30008D4800780444E1B28C4802F01FFAAA21CF
:101F40008A4802F01BFABDE8F09F2DE9F05F0546D4
:101F50000E4617469846DDE90BABDDF82890B8240D
:101F6000A520834908705A20487016208870A22046
:101F7000C870002D02DAC5F5004005B2280A7D4977
:101F80000870084600787A4908717A480078044455
:101F900078490D7008460078754948717548007891
:101FA0000444002E02DAC6F5004006B2300A714938
:101FB0000870084600786E4988716E4800780444BD
:101FC0006C490E70084600786949C8716948007804
:101FD0000444002F02DAC7F5004007B2380A654909
:101FE0000870084600786249087262480078044424
:101FF00060490F70084600785D4948725D48007876
:102000000444B8F1000F03DAC8F500400FFA80F875
:102010004FEA1820574908700846007854498872DA
:10202000544800780444534981F8008008460078F9
:102030004F49C8724F4800780444B9F1000F03DAE1
:10204000C9F500400FFA80F94FEA19204949087094
:1020500008460078464908734648007804444549D4
:1020600081F800900846007841494873414800785B
:102070000444BAF1000F03DACAF500400FFA80FAFF
:102080004FEA1A203B49087008460078384988739F
:10209000384800780444374981F800A008460078A1
:1020A0003349C873334800780444BBF1000F03DAA6
:1020B000CBF500400FFA80FB4FEA1B202D4908703A
:1020C000084600782A4908742A48007804442949B7
:1020D00081F800B008460078254948742548007802
:1020E00004440D98002804DA0D98C0F5004000B2B1
:1020F0000D900D98000A1F490870084600781C4989
:1021000088741C48007804441A490D9808700846E1
:1021100000781749C8741748007804440E980028BE
:1021200004DA0E98C0F5004000B20E900E98000A36
:1021300010490870084600780D4908750D48007868
:1021400004440C490E980870084600780849487500
:102150000848007804448C75AA20C87518210448E2
:1021600000F045F8BDE8F09FB300002000380140C2
:10217000F0010020B40000202DE9F04107460D4693
:1021800016461C460121084601F05FF8384600F06B
:102190002DFC254804802548056046601020234911
:1021A00088600846C46000200861802048610020E3
:1021B0008861C86108624FF48050486200208862DC
:1021C000384600F0B5FCBDE8F08110B504460021AA
:1021D000204600F0D8FC144800881449C860144810
:1021E00000F0A6FC0121204600F0CDFC10BD70B52A
:1021F00004460D460F492B4622460D48FFF7BCFF0B
:10220000012280210B48001F02F06CF80848FFF7FC
:10221000DCFF00BF4FF4005000F0D0FC0128F9D1E2
:10222000400300F0DEFC70BDB60000200802002074
:10223000440002400438014010B5182200213C201F
:10224000FEF7BAFA002202213C20FEF7B5FA10BDD3
:102250007CB5044606236A4603213C20FEF716FBA4
:10226000012822D19DF801009DF8001040EA0120CC
:10227000573800B220809DF805009DF8041040EA10
:10228000012000B200F11A0542F6A300684342F2B1
:10229000107190FBF1F528B260809DF803009DF865
:1022A000021040EA012000B2A0807CBD2DE9F04779
:1022B00088B00646B6F90070B6F90280B7F5004F4F
:1022C00001DB781C07B2B8F5004F03DB08F1010011
:1022D0000FFA80F8384603F02EF904460D464046C2
:1022E00003F029F922462B46CDE9000102F0C8FD92
:1022F000114A124BCDE9020103F070F90022104B94
:10230000CDE9040102F0D4FECDE9060102F09EFE03
:102310008146484603F01EFE1FFA80FACDF800A061
:10232000B6F90430B6F90220B6F9001005A002F0A3
:102330000DF908B0BDE8F087775AF01ADCA54C40DB
:1023400000806640484D43353838334C3A09687848
:102350003A202534642C0968793A202534642C0904
:10236000687A3A202534642C092534640A0D00006B
:102370000EB54FF0000AD346FDF7E6FF322000F01D
:10238000FCF93EA002F0E2F80021A620FEF756FA82
:1023900082460F21D220FEF751FA8346BAF1E50FAB
:1023A00006D1BBF1D30F03D138A002F0CFF807E07C
:1023B00005E03AA002F0CAF8642000F0DEF9F8E780
:1023C0003FA002F0C3F8FEF7A3FA49A002F0BEF85E
:1023D0004D48FFF73DFF4C49B1F9020003F0ABF85F
:1023E00006460F464849B1F9000003F0A4F88046BC
:1023F00032463B4602F044FD04464FF0C042434B98
:1024000002F056FE424A03C20121424801F096FB07
:1024100033E04148007801282FD100203E49087060
:102420003E4801683E4803F001FE80463D4903F006
:10243000FDFD074603F072FD04B238484168384894
:1024400003F0F4FD8046374903F0F0FD074603F042
:1024500065FD05B231498868324903F0E7FD07465A
:1024600003F05CFD06B20020009001900346224676
:10247000294602903046FFF7AEFACAE7D3B2BCFE57
:10248000B3F5CABCBBAFCDEAB3C90A00C9E8B1B85D
:102490004944D1E9D6A4B3C9B9A60A00C9E8B1B87C
:1024A000D3B2BCFED1E9D6A4B4EDCEF32D2D2DC709
:1024B000EBBCECB2E9494943C1ACCFDF0A000000F4
:1024C000CDD3C2DDD2C7B5C4CBAEC6BDD0A3D7BCB9
:1024D0002D2DC7EBB1A3B3D6C9E8B1B8CBAEC6BDFD
:1024E000BEB2D6B9D6C1C9D933C3EB0A00000000C9
:1024F000CDD3C2DDD2C7BEB2CCACCEF3B2EED0A348
:10250000D7BCCDEAB3C90A00B8000020FB210940BE
:1025100040000020000C004001000020F4000020DA
:10252000000080BF00002041704700BFFEE700BFF1
:10253000FEE700BFFEE700BFFEE770477047704749
:102540007047000000210020674A126842F4803280
:10255000654B1A6000BF644A126802F40030491CDF
:1025600010B9B1F5A06FF6D15F4A126812F4003FBE
:1025700001D0012000E00020012842D15B4A12680E
:1025800042F01002594B1A601A46126822F00302F8
:102590001A601A46126842F002021A60524A5268E1
:1025A000514B5A601A4652685A601A46526842F4B1
:1025B00080625A601A46526822F47C125A601A46A7
:1025C000526842F4E8125A601A46126842F0807269
:1025D0001A6000BF444A126812F0007FFAD0424AE3
:1025E000526822F00302404B5A601A46526842F089
:1025F00002025A6000BF3C4A526802F00C02082AEC
:10260000F9D1704710B5FFF79DFF10BD10B53648E2
:10261000006840F0010034490860084640683449C9
:1026200008403149486008460068324908402E4950
:1026300008600846006820F480200860084640686A
:1026400020F4FE0048604FF41F008860FFF7DAFFB7
:102650004FF000602849086010BD10B5002100202F
:102660000022214B5B6803F00C0121B1042906D044
:10267000082928D107E0214B214C236027E01F4B7C
:102680001F4C236023E0184B5B6803F47010164B5B
:102690005B6803F48032022303EB904022B9194BAC
:1026A0004343174C23600DE00F4B5B6813F4003F6E
:1026B00004D0144B4343124C236003E00F4B4343BD
:1026C0000F4C236003E00D4B0D4C236000BF00BF97
:1026D000054B5B68C3F303130B4CE15C084B1B68B1
:1026E000CB40074C236010BD001002400020024088
:1026F0000000FFF8FFFFF6FE08ED00E000127A0090
:10270000C000002000093D00C400002010B56FF09B
:10271000040000F04DF92A4800682A49B0FBF1F0A6
:1027200029490870084600784FF47A7148432749D0
:10273000088010BD0146244A12784A434FF0E02336
:102740005A6100229A611A46126942F001021A6126
:1027500000BF4FF0E022106910F0010F02D010F41A
:10276000803FF6D04FF0E022126922F001024FF0D4
:10277000E0231A6100229A6170470146134A1288C9
:102780004A434FF0E0235A6100229A611A461269C7
:1027900042F001021A6100BF4FF0E022106910F010
:1027A000010F02D010F4803FF6D04FF0E022126902
:1027B00022F001024FF0E0231A6100229A61704773
:1027C000C000002000127A00D4000020D6000020B3
:1027D000014600BF704700BF494A128812F0400FFF
:1027E000FAD0C2B2464B1B1D1A80704710B586B096
:1027F0000446012144F2040000F034FD4FF400705F
:10280000ADF8140003208DF8160018208DF817007D
:1028100005A93C4800F072FA4FF48060ADF814004E
:1028200004208DF8170005A9364800F067FA252026
:102830008DF8000003208DF801008DF802000120C2
:102840008DF80300684600F068F801940020ADF8A8
:102850000800ADF80A00ADF80C00ADF810000C202F
:10286000ADF80E0001A9264801F07FFC012240F2DC
:102870002551234801F011FD0121214801F001FDFE
:1028800006B010BD10B540F225511D4801F0F7FD0E
:1028900010B31B4801F080FDC4B21B48008810F43F
:1028A000004F2BD11848008810F4804F0CD00A2C10
:1028B00003D000201449088020E01348008840F429
:1028C00000401149088019E00D2C06D10E480088FF
:1028D00040F480400C49088010E00B480088C0F3A9
:1028E0000D000A490C5408480088401C064908801D
:1028F00008460088C72801DD0020088010BD0000C0
:102900000038014000080140D800002034020020B7
:1029100031490143314A1160704770B500210023ED
:102920000F22C4780CB32D4C246804F4E064C4F581
:10293000E064210AC1F10403CA40447804FA03F1B7
:102940008478144021430901254C0678A155047868
:1029500004F01F050124AC4005786D114FF0E0260E
:1029600006EB8505C5F8004109E0047804F01F0571
:102970000124AC401B4D0678761145F8264070BD09
:10298000194A0A400243154B1B1F1A60704739B1A0
:10299000124A121D12680243104B1B1D1A6006E0FA
:1029A0000E4A121D126882430C4B1B1D1A607047A1
:1029B000042808D14FF0E021096941F004014FF0EB
:1029C000E022116107E04FF0E021096921F00401E4
:1029D0004FF0E022116170470000FA050CED00E0B5
:1029E00000E400E080E100E080FFFF1F01684FF697
:1029F000FE72114001600021016041608160C16090
:102A00008C49884208D18B490839496841F00F0147
:102A1000884A083A51608AE086491431884208D1D0
:102A200084490839496841F0F001824A083A516006
:102A30007DE080492831884208D17E4908394968BB
:102A400041F470617B4A083A516070E079493C3149
:102A5000884208D177490839496841F47041754A7C
:102A6000083A516063E073495031884208D1714996
:102A70000839496841F470216E4A083A516056E0BD
:102A80006C496431884208D16A490839496841F47F
:102A90007001684A083A516049E0664978318842D5
:102AA00008D164490839496841F07061614A083ABF
:102AB00051603CE06049884206D1011F096841F03D
:102AC0000F01021F116032E05B491431884208D1C6
:102AD0005949091F096841F0F001574A121F116056
:102AE00025E055492831884208D15349091F096812
:102AF00041F47061504A121F116018E04E493C3198
:102B0000884208D14C49091F096841F470414A4A7A
:102B1000121F11600BE048495031884207D14649E5
:102B2000091F096841F47021434A121F1160704760
:102B300010B50022026847F6F0739A430C6A8B685E
:102B400023430C6923434C6923438C692343CC6999
:102B500023434C6A23438C6A23431A430260CB68A5
:102B600043600B6883604B68C36010BD0021016047
:102B700041608160C160016141618161C161016247
:102B800041628162704721B1026842F00102026035
:102B900004E002684FF6FE731A40026070471AB1F3
:102BA00003680B43036002E003688B4303607047D4
:102BB000416070470146486880B270470146002076
:102BC000002211F0805F03D01B4B083B1A6802E023
:102BD000184B083B1A680A4201D0012000E000208F
:102BE000704710F0805F03D01349091F086002E0AE
:102BF000104908394860704701460020002211F052
:102C0000805F03D00C4B083B1A6802E0094B083B7D
:102C10001A680A4201D0012000E00020704710F03D
:102C2000805F03D00449091F086002E001490839A8
:102C300048607047080002400804024010B504468E
:102C4000CA48844208D10121042000F025FB00215C
:102C5000042000F021FB46E0C548844208D1012150
:102C6000082000F019FB0021082000F015FB3AE0D5
:102C7000C048844208D10121102000F00DFB002142
:102C8000102000F009FB2EE0BB48844208D101214E
:102C9000202000F001FB0021202000F0FDFA22E0BE
:102CA000B648844208D10121402000F0F5FA002105
:102CB000402000F0F1FA16E0B148844208D1012129
:102CC000802000F0E9FA0021802000F0E5FA0AE017
:102CD000AC48844207D10121801500F0DDFA0021C3
:102CE000A01500F0D9FA10BD10B50121084600F07A
:102CF000D3FA0021012000F0CFFA10BD2DE9F041F8
:102D0000024600250026002000230024002791F819
:102D100003C00CF00F0591F803C01CF0100F03D096
:102D200091F802C04CEA0505B1F800C01CF0FF0F95
:102D300031D0146800202BE04FF0010C0CFA00F3A6
:102D4000B1F800C00CEA03069E4220D183004FF088
:102D50000F0C0CFA03F7BC4305FA03FC4CEA04041D
:102D600091F803C0BCF1280F06D14FF0010C0CFA0A
:102D700000FCC2F814C00AE091F803C0BCF1480F8F
:102D800005D14FF0010C0CFA00FCC2F810C0401C39
:102D90000828D1D31460B1F800C0BCF1FF0F34DDB6
:102DA000546800202EE000F1080C4FF0010808FAEA
:102DB0000CF3B1F800C00CEA03069E4221D1830057
:102DC0004FF00F0C0CFA03F7BC4305FA03FC4CEA76
:102DD000040491F803C0BCF1280F05D100F1080CE0
:102DE00008FA0CF8C2F8148091F803C0BCF1480F3F
:102DF00007D100F1080C4FF0010808FA0CF8C2F8EE
:102E00001080401C0828CED35460BDE8F0814FF6F6
:102E1000FF710180022181700421C1707047024658
:102E2000002093680B4201D0012000E00020704791
:102E30000146886880B2704702460020D3680B4282
:102E400001D0012000E0002070470146C86880B230
:102E5000704701617047416170470AB1016100E04C
:102E600041617047C16070474FF480320A4382610C
:102E70008161826182698269704702460020424B0B
:102E800018684FF68073184040EA021008433E4B22
:102E9000186070473D49C8617047F0B50A46002385
:102EA00000240021002500F00046B6F1004F02D1B9
:102EB000354EF16901E0344E7168C0F3034583B2C9
:102EC00000F44016B6F5401F08D121F070612E4E77
:102ED000766826F070662C4F7E6012E000F4801653
:102EE000B6F5801F06D1032606FA05F4A14341F08A
:102EF000706106E0460D360103FA06F6B14341F073
:102F0000706122B1460D360103FA06F6314300F036
:102F10000046B6F1004F02D11B4EF16101E01A4E9E
:102F20007160F0BD30B500228B071C0F0F2303FA30
:102F300004F2154B08338C1053F824309343124C91
:102F400008348D1044F8253023468C1053F8243073
:102F50008C07240F00FA04F423430B4C08348D1023
:102F600044F8253030BD0A49086070470008014028
:102F7000000C014000100140001401400018014005
:102F8000001C0140002001400000014000002042E0
:102F9000DC002042DC48006840F00100DA490860AB
:102FA00008464068D9490840D74948600846006843
:102FB000D7490840D44908600846006820F48020BA
:102FC00008600846406820F4FE0048604FF41F0087
:102FD00088607047CC49096821F48031CA4A116081
:102FE0001146096821F480211160B0F5803F03D0BB
:102FF000B0F5802F0ED106E0C349096841F4803155
:10300000C14A116007E0C049096841F4A021BE4AE5
:10301000116000E000BF00BF704710B501460022FC
:10302000002300204A11012A02D1B74C236806E090
:10303000022A02D1B44C236A01E0B34C636A01F066
:103040001F02012494401C4201D0012000E0002016
:1030500010BD70B500240025002600BF3120FFF709
:10306000DCFF0646641CB4F5A06F01D0002EF5D03D
:103070003120FFF7D2FF08B1012500E000252846E6
:1030800070BD01460020A04A106820F0F80040EA18
:10309000C100106070479F490860704702460020D9
:1030A000994B586820F47C1042EA01031843964B70
:1030B0005860704797490866704701460020924A59
:1030C000506820F003000843506070478E48406805
:1030D00000F00C007047014600208B4A506820F039
:1030E000F00008435060704701460020864A50684F
:1030F00020F4E06008435060704701460020824A97
:10310000506820F4605040EAC1005060704729B117
:103110007D4A527A02437C4B5A7206E07A4A527ACE
:10312000C343DBB21A40784B5A7270477A49086041
:10313000704701460020744A506820F4404008431C
:10314000506070470021754A11706F4A82F8201054
:10315000012802D0042808D103E001216F4A117030
:1031600004E005216D4A117000E000BF00BF704708
:103170006B49086070476449096A0143624A1162F9
:103180007047674944390860704730B50021002214
:10319000002400235C4D6D6805F00C0121B1042969
:1031A00005D0082923D105E05E4D056022E05D4D84
:1031B00005601FE0544D6D6805F47012524D6D6846
:1031C00005F48034022505EB92421CB9564D554357
:1031D00005600BE04C4D6D6815F4003F03D0524D77
:1031E0005543056002E04F4D5543056002E04D4DEB
:1031F000056000BF00BF444D6D6805F0F00109098E
:103200004A4D6B5C0568DD4045603F4D6D6805F4D7
:10321000E061090A454D6B5C4568DD4085603A4DCB
:103220006D6805F46051C90A404D6B5C4568DD402E
:10323000C560354D6D6805F44041890B3C4D6B5CB4
:10324000C568B5FBF3F5056130BD29B12E4A526959
:1032500002432D4B5A6104E02B4A526982432A4BA8
:103260005A61704729B1284A92690243264B9A61F4
:1032700004E0254A92698243234B9A61704729B141
:10328000214AD2690243204BDA6104E01E4AD26926
:1032900082431D4BDA61704729B11B4AD268024351
:1032A000194BDA6004E0184AD2688243164BDA60A0
:1032B000704729B1144A12690243134B1A6104E0A2
:1032C000114A12698243104B1A6170471449403900
:1032D000086070470F49C86470470B49C871704750
:1032E0000948406A40F080700749486270470146CB
:1032F0000020054A92680A4201D0012000E0002027
:103300007047014988727047001002400000FFF8C2
:10331000FFFFF6FE00004242D80042422010024069
:103320008004424200127A0000093D00E0000020C3
:10333000F000002010B50446FE48844208D1012167
:10334000C014FFF7A9FF0021E014FFF7A5FFC4E0B8
:10335000B4F1804F08D101210846FFF7AAFF0021F0
:103360000120FFF7A6FFB8E0F348844208D101210D
:103370000220FFF79EFF00210220FFF79AFFACE03A
:10338000EE48844208D101210420FFF792FF00217A
:103390000420FFF78EFFA0E0E948844208D1012114
:1033A0000820FFF786FF00210820FFF782FF94E046
:1033B000E448844208D101211020FFF77AFF002160
:1033C0001020FFF776FF88E0DF48844208D1012112
:1033D0002020FFF76EFF00212020FFF76AFF7CE02E
:1033E000DA48844208D101214014FFF755FF00213B
:1033F0006014FFF751FF70E0D548844209D10121E4
:10340000C804FFF749FF00214FF40020FFF744FFF5
:1034100063E0D048844209D101210805FFF73CFF51
:1034200000214FF48010FFF737FF56E0CA4884426E
:1034300009D101214805FFF72FFF00214FF40010AB
:10344000FFF72AFF49E0C548844208D10121402006
:10345000FFF72FFF00214020FFF72BFF3DE0C04882
:10346000844208D101218020FFF723FF0021802022
:10347000FFF71FFF31E0BB48844208D101218015CE
:10348000FFF717FF0021A015FFF713FF25E0B6484F
:10349000844209D101210804FFF7FEFE00214FF408
:1034A0008030FFF7F9FE18E0B048844209D10121CD
:1034B0004804FFF7F1FE00214FF40030FFF7ECFE67
:1034C0000BE0AB48844208D101218804FFF7E4FEF9
:1034D00000214FF48020FFF7DFFE10BD002202889C
:1034E000944B98420ED0994B98420BD0B0F1804F3C
:1034F00008D0914B984205D0904B984202D0904B07
:10350000984204D14FF68F731A404B881A438D4B63
:10351000984207D08C4B984204D04FF6FF431A4094
:10352000CB881A4302808B8883850B880385814B67
:1035300098420BD0854B984208D08B4B984205D0CF
:103540008A4B984202D08A4B984201D10B7A03866B
:1035500001238382704770B5002400220023058C6C
:103560004FF6FE7635400584028C8388048B4FF637
:103570008F752C40B51E2C400D882C43751E2A409B
:103580000D892A434D882A436A4DA8420BD06F4DBE
:10359000A84208D0744DA84205D0744DA84202D06C
:1035A000734DA84213D14FF6F7752A404D892A432F
:1035B0004FF6FB752A408D882A434FF6FF652B4056
:1035C0004FF6FF552B408D892B43CD892B438380AC
:1035D0000483CD888586028470BD70B500240022E6
:1035E0000023058C4FF6EF7635400584028C8388E6
:1035F000048B48F6FF752C404FF6FF452C400D8894
:103600002D0644EA15444FF6DF752A400D892D0535
:1036100042EA15424D882D0542EA1542454DA84221
:1036200002D04A4DA8421BD14FF67F752A404D89E2
:103630002D0542EA15424FF6BF752A408D882D05AB
:1036400042EA15424FF6FF352B404FF2FF752B40F3
:103650008D89AD0443EA1543CD89AD0443EA154392
:1036600083800483CD880587028470BD70B50024F3
:1036700000220023058C4FF6FF6635400584028C3E
:103680008388848B4FF68F752C404FF6FC752C4049
:103690000D882C434FF6FF552A400D892D0642EA2E
:1036A00015424D882D0642EA1542224DA84202D00D
:1036B000264DA8421BD14FF2FF752A404D892D0699
:1036C00042EA15424FF6FF352A408D882D0642EA20
:1036D00015424EF6FF752B404DF6FF752B408D8938
:1036E0002D0543EA1543CD892D0543EA1543838013
:1036F0008483CD888587028470BD70B50022002345
:103700000024058C4EF6FF7635400584038C8488B2
:10371000828B48F6FF752A404FF6FF452A400D88F8
:103720002D0642EA15424DF6FF752B400D892D07F7
:1037300020E00000002C0140000400400008004090
:10374000000C004000100040001400400034014014
:10375000004C01400050014000540140001800405E
:10376000001C004000200040004001400044014097
:103770000048014043EA15434D882D0743EA1543AD
:10378000F84DA84202D0F84DA84206D14BF6FF757D
:103790002C408D89AD0544EA154484808283CD8810
:1037A000A0F84050038470BD828B4FF2FF331A4063
:1037B0008283828B0B0642EA134282837047F0B504
:1037C0000C461546002200210026078C4EF6FF7C91
:1037D00007EA0C070784828B018C27073E0C40F612
:1037E000FF473A402F0642EA17421F0742EA1742B4
:1037F000DC4FB8420ED0DC4FB8420BD0B0F1804F56
:1038000008D0DA4FB84205D0D94FB84202D0D94FCC
:10381000B84206D14DF6FF77394046F48057394318
:1038200005E047F6FF57394044F480573943828317
:103830000184F0BD828B4FF6F3731A408283828B32
:103840000A4382837047F0B50C46154600220021DA
:103850000026078C4FF6FF6C07EA0C070784828B63
:10386000018C27063E0C4FF60C773A401F0545EABF
:1038700017473A43BB4FB8420ED0BB4FB8420BD0AC
:10388000B0F1804F08D0B94FB84205D0B84FB84218
:1038900002D0B84FB84206D14FF6FF57394046F430
:1038A0008077394305E04FF2FF57394044F4807781
:1038B000394382830184F0BD028B4FF2FF331A40FB
:1038C0000283028B0B0642EA134202837047F0B573
:1038D0000C461546002200210026078C4FF6EF7C8F
:1038E00007EA0C070784028B018C27053E0C40F683
:1038F000FF473A401F0742EA17422F0642EA1742A3
:10390000984FB8420ED0984FB8420BD0B0F1804FCC
:1039100008D0964FB84205D0954FB84202D0954F87
:10392000B84206D14FF6DF77394046F010073943E9
:1039300005E04FF65F77394044F0100739430283C2
:103940000184F0BD028B4FF6F3731A400283028BA1
:103950000A4302837047F0B50C4615460022002149
:10396000068C4FF6FE773E400684028B018C4FF6A4
:103970000C7632401E0545EA16463243794EB04277
:103980000ED0794EB0420BD0B0F1804F08D0774EB8
:10399000B04205D0764EB04202D0764EB04206D14B
:1039A0004FF6FD76314044F00106314305E04FF615
:1039B000F576314044F00106314302830184F0BDC5
:1039C00070B505460C46674885420ED0664885426C
:1039D0000BD0B5F1804F08D06448854205D06448CB
:1039E000854202D06348854200D100E000BF2088B4
:1039F00050B92389A28861882846FFF7ACFFE18887
:103A00002846FFF79FFF25E0208804280AD1238954
:103A1000A28861882846FFF75AFFE1882846FFF709
:103A20004BFF17E0208808280AD12389A2886188E3
:103A30002846FFF708FFE1882846FFF7FBFE09E06C
:103A40002389A28861882846FFF7B9FEE1882846C5
:103A5000FFF7AAFE70BD2DE9F04105460C46002691
:103A60000127608808B9022600E00026A088012806
:103A700001D1022700E001272088A0B92389A2886C
:103A800061882846FFF767FFE1882846FFF75AFF5D
:103A900023893A4631462846FFF719FFE188284630
:103AA000FFF70AFF13E02389A28861882846FFF701
:103AB0000EFFE1882846FFF7FFFE23893A4631468C
:103AC0002846FFF748FFE1882846FFF73BFFBDE89F
:103AD000F0810A884B881A438B881A43CB881A4393
:103AE0000B891A434B891A438B891A43A0F8442047
:103AF00070474FF6FF71818000210180C1804180B5
:103B0000017270470021018041808180C180018164
:103B100041818181C1817047002101804180012163
:103B200081800021C1800181704700210180418096
:103B30008180C180018141818181704721B10288EA
:103B400042F00102028004E002884FF6FE731A4040
:103B50000280704781B1B0F8442042F40042A0F8DE
:103B600044200FE0002C01400034014000040040DC
:103B700000080040000C0040B0F84420C2F30E02E0
:103B8000A0F84420704710B51AB183890B43838194
:103B900004E08389CC43A4B22340838110BD818299
:103BA000704741EA0203A0F84830704710B51AB1D7
:103BB00083890B43838104E08389CC43A4B22340EF
:103BC000838110BD01894FF6F87211400181704761
:103BD0000A46002101894FF68F7319401143018174
:103BE000704730B504460D4629462046FFF7F0FFE2
:103BF000208940F00700208130BD2DE9F0410446C6
:103C00000D4616461F46602D06D13B460122314621
:103C10002046FFF75CFE05E03B4601223146204688
:103C2000FFF799FE29462046FFF7D2FF208940F092
:103C300007002081BDE8F08130B50C4600210189E4
:103C4000C9B21D0642EA154525432943018130BD0D
:103C50002DE9F04105460E46174698460024434696
:103C60003A4631462846FFF7E7FF2C894FF6F870B1
:103C7000044044F007044FF68F70044044F0700491
:103C80002C81BDE8F081F0B504460D4616461F466E
:103C90003B46324629462046FFF7CEFF208940F4B6
:103CA00080402081F0BD0185828270470A46002154
:103CB00001884FF68F731940114301807047F0B5AA
:103CC0000C4615461E460021002200230189028B66
:103CD000038C4FF6F877394021434FF6FC473A40C2
:103CE00040F201173A434FF6DD773B40370545EA8E
:103CF00017473B43018102830384F0BD0A4600213C
:103D0000018B4FF68F7319401143018370470A46A8
:103D10000021018B48F6FF731940130641EA134155
:103D2000018370470A460021818B4FF68F7319403B
:103D30001143818370470A460021818B48F6FF7347
:103D40001940130641EA13418183704721B102886B
:103D500042F08002028004E002884FF67F731A402E
:103D60000280704721B1828842F00402828004E020
:103D700082884FF6FB731A408280704721B1828897
:103D800042F00802828004E082884FF6F7731A40FE
:103D90008280704721B1828842F00102828004E073
:103DA00082884FF6FE731A40828070470A460021CF
:103DB000018B4FF6F77319401143018370470A4690
:103DC0000021018B4FF2FF731940130641EA1341A2
:103DD000018370470A460021818B4FF6F773194023
:103DE0001143818370470A460021818B4FF2FF7394
:103DF0001940130641EA1341818370470A460021A6
:103E0000018B4FF6FB7319401143018370470A463B
:103E10000021018B4FF6FF331940130641EA13418D
:103E2000018370470A460021818B4FF6FB731940CE
:103E30001143818370470A460021818B4FF6FF337F
:103E40001940130641EA1341818370470A46002155
:103E5000018B4FF67F7319401143018370470A4667
:103E60000021018BC1F30E01130641EA13410183C6
:103E700070470A460021818B4FF67F73194011432A
:103E8000818370470A460021818BC1F30E0113061E
:103E900041EA1341818370470A460021018C4FF6A5
:103EA000FD7319401143018470470A460021018CBB
:103EB0004FF6F77319401143018470470A460021F9
:103EC000018C4FF6DF731940130541EA1341018459
:103ED00070470A460021018C4FF67F731940130585
:103EE00041EA1341018470470A460021018C4FF6D4
:103EF000FF531940130641EA1341018470470A46F3
:103F00000021018C4FF2FF731940130641EA13415F
:103F1000018470470A460021018C4DF6FF73194059
:103F2000130741EA13410184704730B5002301248F
:103F30008C40A3B2048CDD43ADB22C400484048CCD
:103F400002FA01F5ADB22C43048430BD30B5002334
:103F500004248C40A3B2048CDD43ADB22C40048415
:103F6000048C02FA01F5ADB22C43048430BD70B567
:103F70000346002000241846183001258D40ACB2BD
:103F80001D8CE643B6B235401D8409B1082909D11C
:103F900000EB6100056825F07005056005681543B4
:103FA00005600CE00D1FADB200EB6500056825F45F
:103FB000E04505600568160645EA1645056070BDD2
:103FC00021B1028842F00202028004E002884FF62A
:103FD000FD731A400280704721B1028842F004024A
:103FE000028004E002884FF6FB731A40028070479B
:103FF00021B1828842F08002828004E082884FF6FC
:104000007F731A408280704702884FF6F7731A4018
:10401000028002880A430280704782884FF68F73BD
:104020001A40828082880A438280704702894FF654
:10403000F8731A40028102890A430281704702899B
:104040004FF67F731A40028102890A43028170474A
:1040500081847047818570478186704701877047EA
:1040600081877047A0F84010704702884FF6FF43E1
:104070001A40028002880A43028070470146888EF7
:1040800070470146088F70470146888F7047014688
:10409000B1F8400070470146888C70470146088D92
:1040A000704702460020138A0B4201D0012000E035
:1040B00000207047CA430282704730B50246002094
:1040C00000230024158A05EA0103958905EA010405
:1040D00013B10CB1012000E0002030BDCA430282C0
:1040E0007047000010B50446F948844209D1012107
:1040F0008803FFF7D1F800214FF48040FFF7CCF898
:1041000032E0F448844209D101214804FFF7D1F894
:1041100000214FF40030FFF7CCF825E0EE48844250
:1041200009D101218804FFF7C4F800214FF4802051
:10413000FFF7BFF818E0E948844209D10121C8041B
:10414000FFF7B7F800214FF40020FFF7B2F80BE0BB
:10415000E348844208D101210805FFF7AAF80021AD
:104160004FF48010FFF7A5F810BD2DE9F04786B099
:1041700005460E460024A24600BFA1460027B0898E
:1041800000B100BF2F462C8A4CF6FF700440F08827
:1041900004432C82AC894EF6F3100440B088318978
:1041A0000843718908430443AC81AC8A4FF6FF4051
:1041B0000440B0890443AC8201A8FEF7E6FFC4487E
:1041C000874202D1DDF810A001E0DDF80CA0A8893B
:1041D00010F4004F08D00AEBCA0000EB0A10316857
:1041E0004900B0FBF1F807E00AEBCA0000EB0A1047
:1041F00031688900B0FBF1F86420B8FBF0F00401ED
:104200002009642101FB1089A88910F4004F08D00F
:10421000322000EBC900B0FBF1F000F007000443CE
:1042200008E0322000EB09106421B0FBF1F000F04F
:104230000F0004432C8106B0BDE8F0874FF41651FF
:10424000016000218180C18001810C214181002118
:104250008181704710B502460020108A4FF2FF039B
:1042600018400B884C8823438C882343CC882343F5
:104270001843108210BD0021018041808180C180DF
:10428000704721B1828942F40052828104E0828920
:104290004DF6FF731A4082817047F0B50346002443
:1042A000002600250020A1F510676A3F00D100BF5D
:1042B0001846C1F3421401F01F06012707FA06F55C
:1042C000012C01D10C3004E0022C01D1103000E0AF
:1042D00014301AB107682F43076002E00768AF4344
:1042E0000760F0BD10B51AB1838A0B43838204E0E6
:1042F000838ACC43A4B22340838210BD028A4FF646
:10430000F0731A400282028A0A430282704782894D
:104310004FF2FF731A40828182890A43828170477B
:1043200021B1828942F00202828104E082894FF643
:10433000FD731A4082817047028A4FF6DF731A407C
:104340000282028A0A430282704721B1028A42F441
:104350008042028204E0028A4BF6FF731A40028216
:10436000704702460020B1F5007F00D100BF1388DE
:104370000B4201D0012000E00020704730B5044618
:104380000D46C5F30800A08000BF80212046FFF73E
:10439000E8FF0028F9D030BD01468888C0F3080046
:1043A0007047818941F0010181817047028BD2B24F
:1043B0000283028B42EA012202837047028B02F4DD
:1043C0007F420283028B0A430283704721B1828AB3
:1043D00042F02002828204E0828A4FF6DF731A40A4
:1043E0008282704721B1828A42F01002828204E008
:1043F000828A4FF6EF731A408282704721B1828A17
:1044000042F00802828204E0828A4FF6F7731A4073
:104410008282704721B1828942F40042828103E0A6
:104420008289C2F30E028281704721B1828A42F4EE
:104430000062828204E0828A4FF2FF731A40828215
:104440007047828A4FF6FB731A408282828A0A433F
:104450008282704721B1828A42F00202828204E0A5
:10446000828A4FF6FD731A408282704701F400720F
:10447000B2F5007F00D100BFCA430280704770B51B
:1044800002460024002300250020A1F510666A3EA4
:1044900000D100BFC1F3421501F01F03012606FA47
:1044A00003F3012D02D19689334006E0022D02D19B
:1044B000168A334001E0968A33400C12012606FA30
:1044C00004F4168834406BB164B101200BE00000A5
:1044D000003801400044004000480040004C0040CB
:1044E00000500040002070BD10B500220023A1F54F
:1044F00010646A3C00D100BF0A1201249440A3B2A8
:10450000DC43048010BD000009488047094800478B
:10451000FEE7FEE7FEE7FEE7FEE7FEE7FEE7FEE773
:10452000FEE7FEE704480549054A064B70470000D0
:104530000D260008310100086003002060090020FA
:104540006005002060050020704700000FB404499A
:1045500010B503AA029800F05DF910BC5DF814FBD9
:10456000DC00002070B5044685690068C10601D5ED
:10457000302600E02026C00708D070BDD4E9012114
:1045800030469047206A00F1010020626D1EF5D58B
:1045900070BD70B5044685690068C00708D170BD5C
:1045A000D4E9012120209047206A00F10100206217
:1045B0006D1EF5D570BD00002DE9F04107460025C0
:1045C00010687529394616A411D0AFF30080002871
:1045D00003DAC0F1000013A407E039688A0701D5A7
:1045E00011A402E0490704D510A4012501E0AFF3AE
:1045F000008000210A2307F1240607E0B0FBF3F254
:1046000003FB1200303070541046491C0028F5D1CD
:104610002B4622463846BDE8F04100F09FB8000026
:10462000000000002D0000002B0000002000000012
:104630002DE9F0474FF0000A04468946C0F820A053
:104640002046E1688847002876D0252806D0D4E99E
:1046500001219047206A401C2062F1E7E168204672
:1046600000258847C4F81CA006460027C4F818A0F7
:104670002A2E09D0304600F0ABF938B304EB870896
:10468000303EC8F8186019E059F8041B204604EBC6
:1046900087029161E1688847012F064618D1E069D9
:1046A000002820DA25F020051DE0D8F8180000EBDE
:1046B000800006EB40003038C8F818002046E1685A
:1046C0008847064600F084F90028EED1012F0AD071
:1046D0002E2E08D12046E16888477F1C0646022F0F
:1046E00045F02005C4DBA069002803DA404245F00C
:1046F0000105A061E80701D025F01005B6B1A6F1CB
:104700004100192802D8203645F400654A46314652
:10471000204625604D46FBF745FD58B1012806D0DF
:10472000ED1D25F0070000F1080989E704E005F117
:10473000040985E730468AE7206ABDE8F0877047BC
:1047400070477047704710B500F076F8006810BDEC
:1047500010B5044600F070F8046010BD2DE9F04774
:104760000D4604469246994600F1240801688806E1
:1047700004D5E06921F01001216000E00120A84289
:1047800002DDA0EB050700E00027A16907EB0502A9
:1047900002EB0900A1EB0000A0612068C00602D472
:1047A0002046FFF7DFFE002608E0D4E901211AF8D1
:1047B00006009047206A401C761C20624E45F4DBC0
:1047C0002068C0060AD52046FFF7CCFE06E0D4E9F3
:1047D000012130209047206A401C2062381EA7F13A
:1047E0000107F4DC07E0D4E9012118F8050090473F
:1047F000206A401C2062281EA5F10105F3DC20463A
:10480000FFF7C7FE2068000602D50220BDE8F0874A
:104810000120FBE7074B70B50C467B4400F015F810
:104820000546204600F024F810B14FF0FF3070BD6F
:10483000284670BDB9DFFFFF00487047FC0200202A
:1048400001694A1C02610878704700B58FB0CDE954
:1048500001310021059105497944CDE90310114644
:104860006846FFF7E5FE0FB000BD0000E5FFFFFF63
:10487000C06800F08000704700487047FC020020CC
:104880007546FFF7F9FFAE4605006946534620F02E
:104890000700854618B020B5FFF744FEBDE820406C
:1048A0004FF000064FF000074FF000084FF0000BEC
:1048B00021F00701AC46ACE8C009ACE8C009ACE89F
:1048C000C009ACE8C0098D4670470446AFF30080CC
:1048D0002046FBF77BFC00000048704700030020E7
:1048E000022001E0411EC8B20028FBD170474900F8
:1048F00050EAC12018BF04204A0D18BF40F0010043
:1049000040F2FF72B2EB515F08BF40F00200012895
:1049100008BF052070472DE9F0414F1E00EBC7018D
:104920000446D1E9000115461E4637F006020DD0B7
:104930002A46334600F052FE7F1E04EBC703D3E93C
:10494000002300F0B5FB37F00602F1D1022F25D08D
:10495000042F13D0062F18BFBDE8F0812A46334636
:1049600000F03CFED4E90A2300F0A2FB2A463346BD
:1049700000F034FED4E9082300F09AFB2A463346BF
:1049800000F02CFED4E9062300F092FB2A463346C1
:1049900000F024FED4E9042300F08AFB2A463346C3
:1049A00000F01CFED4E9022300F082FB2A463346C5
:1049B00000F014FED4E90023BDE8F04100F078BB1C
:1049C000024A0020110701F0E6BC000001FDFFFFD4
:1049D00030380A2801D201207047002070470000BB
:1049E0002DE9F04D904F21F0004A86B005460C4667
:1049F000BA4530DBAAEB070028430CD08B48824530
:104A000001DC1CD1DDB106B02846BDE8F04D4FF009
:104A1000010201F0C0BC864A864B284600F0DEFD4C
:104A200007460E46844A854B2846214600F0D6FDAF
:104A300006B03A463346BDE8F04D00F039BB0120E0
:104A4000FFF786FE06B00022BDE8F04D1346104683
:104A5000114600F0E9BB7A48824542DABAF1795F43
:104A60000BDA2846FFF743FF042808BFFFF7A8FF2B
:104A7000284606B02146BDE8F08D2A460B46104672
:104A800000F0ACFD834602466E480E460B460621FA
:104A90007844FFF740FF5A46334600F09FFD8046BA
:104AA00069488A465A46334604217844FFF733FF63
:104AB0005A46334600F092FD00223B4600F0F8FAD9
:104AC00002460B464046514600F0AEFB2A462346BE
:104AD00000F084FD06B02A462346BDE8F04D00F004
:104AE000E7BA284624F0004100223D463B4600F04C
:104AF000A9FE4FF0FF3201F04EFC06460246534835
:104B00000F460B4606217844FFF705FF32463B4629
:104B100000F064FDCDE900014D4832463B460421DA
:104B20007844FFF7F8FE32463B4600F057FD00227E
:104B30002B4600F0BDFA834602913046394600F01C
:104B40005FFA804643480D46504517DCDDE9000119
:104B50005A46029B00F068FB42462B4600F03EFDA1
:104B600042462B4600F0A4FA012201F014FC304A20
:104B7000304B00F059FF304A304B4CE04FF0000A08
:104B800052460B46404600F093FACDE903105246D8
:104B90002B461046194600F021FD32463B4600F0F8
:104BA00051FEDDE9033200F03FFB06460F46DDE92A
:104BB00000015A46029B00F037FB83460091012218
:104BC0003046394601F0E7FB194A1A4B00F03AFE2D
:104BD00006460F4601224046294601F0DCFB5A46B4
:104BE000009B00F0FBFC32463B4600F01DFF0746F1
:104BF0000E4601225046294601F0CDFB0E4DDFF84E
:104C000058802A46434600F01DFE3A46334600F0DF
:104C100019FE2A46434600F015FE002CD8BF81F04D
:104C2000004106B0BDE8F08D0000F03F0000F07FCD
:104C3000075C143326A6913C182D4454FB21F93F00
:104C40000000E03F94190000AA1900001E1900009E
:104C5000341900003333EF3FFB21E93F2DE9F84FD2
:104C600004460D4621F0004000917449884213DB50
:104C70007349884201DC08D13CB120462946BDE891
:104C8000F84F4FF0010201F086BB6E48002DCCBFFB
:104C90006D496E49BDE8F88F6D49884211DA6D495A
:104CA0008842A8BF4FF0FF366DDA20462946FFF74D
:104CB0001EFE042808BFFFF783FE20462946BDE8F4
:104CC000F88F6549DFF894A125F00045884232DA73
:104CD0006349884219DA002632464FF08043204665
:104CE000294600F0E5F90746884601222046294674
:104CF00001F051FB0022534600F096FE3A4643462F
:104D000000F092FA04460D463DE00126002253468B
:104D10002046294600F0CCF9074688460022534633
:104D20002046294600F080FE43463A4600F07CFAD1
:104D300004460D4627E04B4988421BDADFF82881FC
:104D40000226002243462046294600F047FC002266
:104D5000534600F0ADF982460F46002243462046F6
:104D6000294600F061FE52463B4600F05DFA0446DB
:104D70000D4608E0032622462B4600203B4900F062
:104D800053FA04460D4622462B461046194600F0BB
:104D900025FC8B46824602460B4600F01FFC074668
:104DA0000246334888460B4606217844FFF7B3FD98
:104DB00052465B4600F012FC82462E488B463A462D
:104DC000434605217844FFF7A6FD3A46434600F0E6
:104DD00005FC02460B46002E504659460CDA00F000
:104DE00067F922462B4600F0F9FB01B022462B461C
:104DF000BDE8F04F00F026BD00F05AF922462B46E0
:104E000000F0ECFB1C4A7A4402EBC603D3E9002312
:104E100000F00AFE22462B4600F006FE174A7A44AE
:104E200002EBC603D3E9002300F00CFD009A002A30
:104E3000B8BF81F00041BDE8F88F000000001044C9
:104E40000000F07F182D4454FB21F93FFB21F9BFEE
:104E50000000DC3F0000203E0000F33F0000F03F78
:104E60000000E63F008003400000F83F0000F0BF74
:104E700032170000F01600008E16000056160000D3
:104E80002DE9F04D9446CCF1000423F000464CEAA5
:104E90000404524F46EAD47498468A4621F00042F0
:104EA000BC4206D8454240EA050442EAD474BC42FA
:104EB00004D9BDE8F04D624600F0FAB8A8F14055BB
:104EC000A5F17F6555EA0C040BD0022404EAA8740E
:104ED000434DDFF810E144EADA7452EA000B04D0E3
:104EE0000CE0BDE8F04DFFF7B9BE002C14BF012C5B
:104EF000BDE8F08D022C30D0032C32D056EA0C0BDA
:104F00000AD0BE4220D1BA4209D126F0804622F012
:104F100080423346114617E000291ADB25E0DFF80E
:104F2000C8B0FB44002C04BFDBE90001BDE8F08DF4
:104F3000012C02BFDBE9000181F00041BDE8F08DEA
:104F4000022C0AD0032C0CD0BA4212D1BAF1000FB5
:104F50000BDA23482549BDE8F08D28462449BDE8F1
:104F6000F08D28467146BDE8F08D1D482149BDE809
:104F7000F08D921B12153C2AC4BF19481D490EDC46
:104F8000B8F1000FBEBF12F13C0F0020014606DB56
:104F9000624600F049F921F00041FFF75FFE002C66
:104FA00008BFBDE8F08D012C04BF81F00041BDE8D1
:104FB000F08D114A114B022C07D000F035FD2A4626
:104FC000BDE8F04D0A4B00F02FBD00F02DFD2A4644
:104FD000BDE8F04D064B00F035BC00000000F07F4E
:104FE000182D4454FB2109C0EA150000FB21F9BF2C
:104FF000FB210940FB21F93F075C143326A6A13CA5
:105000002DE9F04106460F4600F028FC0D4604004D
:1050100018BF0120284320F00040C0F17F6010F14C
:10502000E0400FD5002E14BF01200020384320F0AF
:105030000040C0F17F6000F1E0400028A4BF0120E3
:10504000FFF786FB20462946BDE8F08121F00042AB
:10505000A2F16052B2F5801F01F0004328BFD2F1E7
:105060007F6C0BD95FEA001C43EAC20242EB50702E
:1050700018BF704728BF20F001007047B2F5801FAD
:10508000BCBF184670474FEA410C1CF5001F02D206
:10509000084601F099B870B500F04AFB000000899D
:1050A000FFF7F6BF4FF00040A0F58000704700000A
:1050B00010B591EA030F48BF83F0004300F1BC84B0
:1050C000841A71EB030C05D2121943EB0C03001B7D
:1050D00061EB0C01DFF824E14FEA1154A4EB135CFF
:1050E0001EEA430F18BF9EEA445F73D023EA0E0303
:1050F000DCF1200E21EA045143F4801332D322FA6A
:105100000CFE10EB0E0023FA0CFE41EB0E01CCF16D
:10511000200E03FA0EFE10EB0E0051F10001B1F566
:10512000801FCCF1200E32D201EB045112FA0EF2A4
:10513000BDE8104058BF7047401C38BF5FEA4202CC
:1051400018BF7047002814BF20F0010041F1000192
:105150004FEA410313F5001F38BF7047A1F1C0416A
:1051600000F034BB012A43EB0302ACF1200CDCF16C
:105170001F0E32BF4FF0000E23FA0CF310EB0300AA
:1051800041EB0451B4EB115FD0D0A1EB045101F518
:10519000801149085FEA300001EB04510ED350F151
:1051A000000038BF12FA0EFE08D1BDE81040C9E772
:1051B000401C38BF5FEA4202CAD1C3E7BDE81040D5
:1051C0004FEA410313F5001F38BF7047A1F1C041FA
:1051D00000F0FCBA9EEA445F08D011EA5E0FBDE819
:1051E000104004BF01F0004100207047BDE81040AE
:1051F00070B500F09DFA00BF64FBBE3E0000E0FF0A
:1052000002494FF0000001F094B800BF0000F87FA1
:10521000491058BFC1F140415B1058BFC3F1404332
:105220008B42EFF3008070472DE9C04130B4DFF8C6
:10523000A0C23CEA111418BF3CEA131400F0EC8041
:1052400081EA03051CEA111444EAD57418BF1CEA6C
:10525000131500F0C780A4EB05044FF0004545EAA4
:10526000C12145EAC32341EA505143EA525304F1B4
:105270007F74994204F500344FEAC0204FEAC222FD
:1052800008BF904200F09C804FEA13650FF2401671
:10529000765D4FEA134506FB05F7C7F1807706FBFD
:1052A00007F74FEAD737A7FB03687642C8F580387F
:1052B000A7FB06CE38BFA8F1010807FB08E64FF0B0
:1052C000000EA6FB028CE6FB03CEDCF1000CCEF157
:1052D000004E38BFAEF1010EA6FB0C584FF0000790
:1052E0004FF00005E6FB0E87A1FB08C6A0FB07CE2A
:1052F00016EB0E0645F10005E1FB076515F1E04EE2
:105300007EBFA4F580345FEA46066D4116F1800742
:1053100045F100054FEA17274FEA066647EA056799
:10532000A6F1DE46B6F1805F4FEA15251FD9384653
:1053300024F0010C05EBC471BCF1FE6F01EB0C1104
:1053400002D8F0BCBDE8008124425CBF01F5801E9C
:105350009EEAC47F02D4F0BCBDE80081244238D468
:10536000F0BCA1F1C041BDE8004100F02FBA4FEA06
:10537000D22242EA43524FEAD323A7FB02864FEAE6
:10538000D02040EA415007FB03661EEA0E0F4FEAA9
:10539000D12105FB026658BFA6EB0056B6EB0056BE
:1053A0004FEA520E4EEAC37E18EB0E0E56EB530E2A
:1053B000BDD518EB02085E417F1C55F10005B6E72C
:1053C0004FF480154FF000074FF000064FF0000833
:1053D000ADE7F0BC4FF0000001F1C04101F0004129
:1053E000BDE8008111EA0C1F0CEA131500D00CE097
:1053F00013EA0C1F00F025804FF00000F0BC81EA9A
:10540000030101F00041BDE80081F0BCBDE80041AE
:1054100081EA030100F0DAB9F0BCBDE8004170B5E3
:1054200000F086F9097EFC3E00F007B881EA03012E
:105430004FF0000001F00041704781EA030100F0E5
:10544000C5B9F0BCBDE800414FF0000021497047EC
:10545000FFFDFBF9F7F5F4F2F0EEEDEBE9E8E6E439
:10546000E3E1E0DEDDDBDAD8D7D5D4D3D1D0CFCDC0
:10547000CCCBCAC8C7C6C5C4C2C1C0BFBEBDBCBBF9
:10548000BAB9B8B7B6B5B4B3B2B1B0AFAEADACABF4
:10549000AAA9A8A8A7A6A5A4A3A3A2A1A09F9F9ECE
:1054A0009D9C9C9B9A999998979796959594939380
:1054B000929191908F8F8E8E8D8C8C8B8B8A898917
:1054C000888887878685858484838382828181809A
:1054D0000000FF070000F87F4FEA41034FEA5353F3
:1054E000A3F58063D3F11E03C8BFD3F1210C0CDDFB
:1054F0004FF0004242EAC12242EA505232FA03FC23
:105500008CEAE17CACEBE1707047102BC4BF00204B
:10551000704703F5787CBCF1FF3F04D06FF0004288
:1055200082EA2100704770B500F002F949922480A8
:1055300000207047F2E710F0004248BF4042B0FA46
:1055400080F310FA03F10AD0C3F11D0303F5806361
:105550004FEA415002EB035202EBD12170474FF06A
:105560000000704751EA030C17D41CF5801F58BF88
:10557000BCF5801F00F10680994218BF704708BF34
:105580009042704707D711F5801F58BF13F5801F51
:1055900019D499427047894270471CF5801F08D57D
:1055A000BCF5801FF7D58B4218BF704708BF8242F9
:1055B00070474FF4001C1CEB410F38BF1CEB430F2E
:1055C00001D28B42704770B500F0B2F892244900C6
:1055D0004FF000514FF08053FFF71ABEDFF848C17B
:1055E00070B51CEA111E1EBF1CEA13159EEA0C0FB3
:1055F00095EA0C0F00F06F8081EA030423EA4C1354
:105600004EEAD47E21EA4C1141F4801143F4801318
:10561000AE44A1FB024CA0FB0365AEF17F7E3619C0
:1056200055EB0C05A1FB034C4CF10003A0FB021C45
:1056300016EB0C06654153F10003094218BF46F012
:10564000010613F4007F0BD14FEA03314FEA053016
:10565000340341EA155140EA16506FF003020AE0A4
:105660004FEAC3214FEAC520F40241EA555140EA0E
:1056700056506FF0020202EB2E4201EB025585EA12
:10568000CE710AD05FEA440C18BF24F0004450F1F8
:10569000000041F1000120EAD47040F2FE7C624536
:1056A00000D270BDA84214BF4FF080444FF0404478
:1056B000002E08BF0024BEF1806FA8BFA1F1C04139
:1056C000BDE8704080F282804FF0000001F1C041DF
:1056D00001F0004170479EEA0C0F0CEA131518BF49
:1056E00095EA0C0F06D04FF0000081EA030E0EF091
:1056F000004170BD00F01CF88900013E00F007B8C1
:1057000000F009B84FEA430C5FEA5C5C08D081EA1C
:10571000030100F05BB84FEA410C5FEA5C5CF6D134
:105720004FF00000014970470000FF070000F87FBC
:105730000EF1020E2EF0030E5EF8046B364205D415
:10574000012A43EB030515F5001F12D8012841EB90
:10575000010C1CF5001F0CD80ED14FEAD17C15F5B9
:10576000001F0CEB4C0C0CF1020C08BF4CEBD37C73
:1057700004E04FF0080C01E04FEAD37C0CEB4C0541
:1057800026FA05F606F00706B6F1040C06D20EEB73
:10579000860CBDE870404CF0010C6047DFE80CF06F
:1057A000090B02024FF000414FF00000A1F500216B
:1057B00070BD19461046012851EB010418BFD4F5FD
:1057C000001484BF002001F0004170BD0808A0F55E
:1057D00000114FEA3101704753EA010C17D41CF550
:1057E000801F58BFBCF5801F00F106808B4218BF98
:1057F000704708BF8242704707D713F5801F58BF14
:1058000011F5801F19D48B4270479B4270471CF5DD
:10581000801F08D5BCF5801FF7D5994218BF704787
:1058200008BF904270474FF4001C1CEB430F38BF79
:105830001CEB410F01D2994270470FB40CBC03BC62
:10584000FFF7C1BE91EA030F10B581F000413FF5AB
:1058500037AC83F0004300F0EFB800002DE9F041D1
:1058600001F5801CBCF5001FC0F2C3804FEA115C3B
:1058700021EA0C510CF1FD0C41F480115FEA5C0C43
:105880000CF5C07C01D3400049413DA4890241EAA6
:10589000905187028E0E0A0CA45D04FB04F602FBF5
:1058A00006F6C6F14046A4FB0662F60D46EA42261D
:1058B00006FB06F4A4FB01235242C3F1404338BF68
:1058C0005B1EA6FB02420024E6FB0324D20B42EA45
:1058D0004446A6FB0623A1FB02E2A3FB07E4A418AF
:1058E0004FF0000252F10002E3FB01426442C2F1B8
:1058F000404E38BFAEF1010EA6FB04234FF000026C
:10590000E6FB0E32A2FB03464FF00004B61954F139
:105910000004E2FB0264A1FB06E6A4FB07E816EB29
:1059200008064FF0000858F10008E4FB01687642D1
:10593000C8F1405838BFA8F10108A2FB06E4A3FB58
:1059400008E52D194FF0000454F10004E2FB08545F
:10595000A1FB05E6A7FB04E818EB06084FF00006DC
:1059600056F10006E1FB048618F1200556F1000609
:10597000A809A8F11B08B10908F03F08B8F10A0FFF
:1059800040EA86601CD901EB0C51BDE8F08100BFF4
:10599000FCF5EEE8E2DDD8D3CFCBC7C3C0BDB9B6C6
:1059A000B4B1AEACA9A7A5A3A19F9D9B9A989695CB
:1059B0009392908F8D8C8B89888786858483828152
:1059C000A0FB006800FB01F208EB4208B8EB872857
:1059D00007D5341858EB0104D5D5401C51F100010E
:1059E000D1E7341A78EB0104CDD4401E71F10001E7
:1059F000C9E75FEA4C0C5FEA9C5C0DD105D34FF020
:105A0000000001F00041BDE8F081BDE8F04170B553
:105A1000FFF78EFE6DDBFFBEBDE8F0414FF00000EA
:105A2000004970470000F87F10B591EA030F48BFA6
:105A300083F000433FF544AB841A71EB030C07D2AB
:105A400012198CF0004C43EB0C03001B61EB0C01B2
:105A5000DFF8A4E14FEA1154A4EB135C1EEA430FF4
:105A600018BF9EEA445F00F0B08023EA6E03524202
:105A700021EA0451C3EB6E0338BF5B1EDCF1200E3C
:105A800025D322FA0CFE10EB0E0043FA0CFE41EB7C
:105A90000E01CCF1200E03FA0EFE10EB0E0051F1B8
:105AA0000001CCF1200E29D412FA0EF201EB0451C0
:105AB000BDE8104058BF7047401C1CBFB2F1004FFA
:105AC000704700280CBF491C20F00100704712EB02
:105AD000020E43EB030218BF4FF0010E4EEA4202E2
